{"contracts/RiskEngine.sol":{"RiskEngine":{"abi":[{"inputs":[{"internalType":"bytes","name":"txCalldata","type":"bytes"}],"name":"assessRisk","outputs":[{"internalType":"uint8","name":"","type":"uint8"}],"stateMutability":"pure","type":"function"}],"evm":{"assembly":"// RO data = 0/0 bytes\n// RW data = 0/65584 bytes\n// Stack size = 32768 bytes\n\n// Instructions = 1394\n// Code size = 4451 bytes\n\n      : @0 (gas: 2)\n     0: a1 = i32 [0x20008]\n     5: jump @22 if a1 == 0\n      : @1 (gas: 4)\n     9: a0 = 0x30030\n    14: i32 a0 = a0 + 0\n    16: ecalli 4 // 'set_immutable_data'\n    18: jump @22\n      : @2 [@dyn 1] (gas: 100)\n    21: a1 = u8 [a0 + 0x1]\n    24: a2 = u8 [a0]\n    26: a3 = u8 [a0 + 0x2]\n    29: a4 = u8 [a0 + 0x3]\n    32: a1 = a1 << 0x8\n    35: a1 = a1 | a2\n    38: a3 = a3 << 0x10\n    41: a4 = a4 << 0x18\n    44: a3 = a3 | a4\n    47: a1 = a1 | a3\n    50: a2 = u8 [a0 + 0x5]\n    53: a3 = u8 [a0 + 0x4]\n    56: a4 = u8 [a0 + 0x6]\n    59: a5 = u8 [a0 + 0x7]\n    62: a2 = a2 << 0x8\n    65: a2 = a2 | a3\n    68: a4 = a4 << 0x10\n    71: a5 = a5 << 0x18\n    74: a4 = a4 | a5\n    77: a2 = a2 | a4\n    80: a2 = a2 << 0x20\n    83: t0 = a2 | a1\n    86: a2 = u8 [a0 + 0x9]\n    89: a3 = u8 [a0 + 0x8]\n    92: a4 = u8 [a0 + 0xa]\n    95: a5 = u8 [a0 + 0xb]\n    98: a2 = a2 << 0x8\n   101: a2 = a2 | a3\n   104: a4 = a4 << 0x10\n   107: a5 = a5 << 0x18\n   110: a4 = a4 | a5\n   113: a2 = a2 | a4\n   116: a3 = u8 [a0 + 0xd]\n   119: a4 = u8 [a0 + 0xc]\n   122: a5 = u8 [a0 + 0xe]\n   125: a1 = u8 [a0 + 0xf]\n   128: a3 = a3 << 0x8\n   131: a3 = a3 | a4\n   134: a5 = a5 << 0x10\n   137: a1 = a1 << 0x18\n   140: a1 = a1 | a5\n   143: a1 = a1 | a3\n   146: a1 = a1 << 0x20\n   149: t1 = a1 | a2\n   152: a1 = u8 [a0 + 0x11]\n   155: a3 = u8 [a0 + 0x10]\n   158: a4 = u8 [a0 + 0x12]\n   161: a5 = u8 [a0 + 0x13]\n   164: a1 = a1 << 0x8\n   167: a1 = a1 | a3\n   170: a4 = a4 << 0x10\n   173: a5 = a5 << 0x18\n   176: a4 = a4 | a5\n   179: a1 = a1 | a4\n   182: a3 = u8 [a0 + 0x15]\n   185: a4 = u8 [a0 + 0x14]\n   188: a5 = u8 [a0 + 0x16]\n   191: a2 = u8 [a0 + 0x17]\n   194: a3 = a3 << 0x8\n   197: a3 = a3 | a4\n   200: a5 = a5 << 0x10\n   203: a2 = a2 << 0x18\n   206: a2 = a2 | a5\n   209: a2 = a2 | a3\n   212: a2 = a2 << 0x20\n   215: a3 = a2 | a1\n   218: a1 = u8 [a0 + 0x19]\n   221: a2 = u8 [a0 + 0x18]\n   224: a4 = u8 [a0 + 0x1a]\n   227: a5 = u8 [a0 + 0x1b]\n   230: a1 = a1 << 0x8\n   233: a1 = a1 | a2\n   236: a4 = a4 << 0x10\n   239: a5 = a5 << 0x18\n   242: a4 = a4 | a5\n   245: a1 = a1 | a4\n   248: a2 = u8 [a0 + 0x1d]\n   251: a4 = u8 [a0 + 0x1c]\n   254: a5 = u8 [a0 + 0x1e]\n   257: a0 = u8 [a0 + 0x1f]\n   260: a2 = a2 << 0x8\n   263: a2 = a2 | a4\n   266: a5 = a5 << 0x10\n   269: a0 = a0 << 0x18\n   272: a0 = a0 | a5\n   275: a0 = a0 | a2\n   278: a0 = a0 << 0x20\n   281: a0 = a0 | a1\n   284: a0 = reverse a0\n   286: a1 = reverse a3\n   288: a2 = reverse t1\n   290: a3 = reverse t0\n   292: u64 [s0 + 0x18] = a3\n   295: u64 [s0 + 0x10] = a2\n   298: u64 [s0 + 0x8] = a1\n   301: u64 [s0] = a0\n   303: ra = u64 [sp + 0x8]\n   306: s0 = u64 [sp]\n   308: sp = sp + 0x10\n   311: ret\n      : @3 (gas: 12)\n   313: sp = sp + 0xffffffffffffffd8\n   316: u64 [sp + 0x20] = ra\n   319: u64 [sp + 0x18] = s0\n   322: u64 [sp + 0x10] = s1\n   325: a2 = u64 [a1]\n   327: u64 [sp + 0x8] = a2\n   330: a2 = u64 [a1 + 0x8]\n   333: u64 [sp] = a2\n   335: s0 = u64 [a1 + 0x10]\n   338: s1 = u64 [a1 + 0x18]\n   341: a1 = 0x20\n   344: ra = 4, jump @5\n      : @4 [@dyn 2] (gas: 71)\n   349: a1 = reverse s1\n   351: a2 = reverse s0\n   353: a3 = u64 [sp]\n   355: a3 = reverse a3\n   357: a4 = u64 [sp + 0x8]\n   360: a4 = reverse a4\n   362: u8 [a0 + 0x18] = a4\n   365: u8 [a0 + 0x10] = a3\n   368: u8 [a0 + 0x8] = a2\n   371: u8 [a0] = a1\n   373: a5 = a4 >> 0x38\n   376: u8 [a0 + 0x1f] = a5\n   379: a5 = a4 >> 0x30\n   382: u8 [a0 + 0x1e] = a5\n   385: a5 = a4 >> 0x28\n   388: u8 [a0 + 0x1d] = a5\n   391: a5 = a4 >> 0x20\n   394: u8 [a0 + 0x1c] = a5\n   397: a5 = a4 >> 0x18\n   400: u8 [a0 + 0x1b] = a5\n   403: a5 = a4 >> 0x10\n   406: u8 [a0 + 0x1a] = a5\n   409: a4 = a4 >> 0x8\n   412: u8 [a0 + 0x19] = a4\n   415: a4 = a3 >> 0x38\n   418: u8 [a0 + 0x17] = a4\n   421: a4 = a3 >> 0x30\n   424: u8 [a0 + 0x16] = a4\n   427: a4 = a3 >> 0x28\n   430: u8 [a0 + 0x15] = a4\n   433: a4 = a3 >> 0x20\n   436: u8 [a0 + 0x14] = a4\n   439: a4 = a3 >> 0x18\n   442: u8 [a0 + 0x13] = a4\n   445: a4 = a3 >> 0x10\n   448: u8 [a0 + 0x12] = a4\n   451: a3 = a3 >> 0x8\n   454: u8 [a0 + 0x11] = a3\n   457: a3 = a2 >> 0x38\n   460: u8 [a0 + 0xf] = a3\n   463: a3 = a2 >> 0x30\n   466: u8 [a0 + 0xe] = a3\n   469: a3 = a2 >> 0x28\n   472: u8 [a0 + 0xd] = a3\n   475: a3 = a2 >> 0x20\n   478: u8 [a0 + 0xc] = a3\n   481: a3 = a2 >> 0x18\n   484: u8 [a0 + 0xb] = a3\n   487: a3 = a2 >> 0x10\n   490: u8 [a0 + 0xa] = a3\n   493: a2 = a2 >> 0x8\n   496: u8 [a0 + 0x9] = a2\n   499: a2 = a1 >> 0x38\n   502: u8 [a0 + 0x7] = a2\n   505: a2 = a1 >> 0x30\n   508: u8 [a0 + 0x6] = a2\n   511: a2 = a1 >> 0x28\n   514: u8 [a0 + 0x5] = a2\n   517: a2 = a1 >> 0x20\n   520: u8 [a0 + 0x4] = a2\n   523: a2 = a1 >> 0x18\n   526: u8 [a0 + 0x3] = a2\n   529: a2 = a1 >> 0x10\n   532: u8 [a0 + 0x2] = a2\n   535: a1 = a1 >> 0x8\n   538: u8 [a0 + 0x1] = a1\n   541: ra = u64 [sp + 0x20]\n   544: s0 = u64 [sp + 0x18]\n   547: s1 = u64 [sp + 0x10]\n   550: sp = sp + 0x28\n   553: ret\n      : @5 (gas: 2)\n   555: i32 a2 = a0 >> 0x10\n   558: jump @10 if a2 != 0\n      : @6 (gas: 4)\n   561: a1 = a1 + a0\n   564: i32 a1 = a1 + 0x1f\n   567: a1 = a1 & 0xffffffffffffffe0\n   570: jump @10 if a1 >u 65536\n      : @7 (gas: 3)\n   576: a2 = 0x20004\n   581: a3 = i32 [0x20004]\n   586: jump @9 if a3 >=u a1\n      : @8 (gas: 2)\n   589: u32 [0x20004] = a1\n   594: fallthrough\n      : @9 (gas: 4)\n   595: a1 = 0x20010\n   600: i32 a0 = a0 + 0\n   602: a0 = a0 + a1\n   605: ret\n      : @10 (gas: 1)\n   607: trap\n      : @11 (gas: 6)\n   608: sp = sp + 0xfffffffffffffff0\n   611: u64 [sp + 0x8] = ra\n   614: u64 [sp] = s0\n   616: s0 = a0 & 0x1\n   619: ecalli 2 // 'call_data_size'\n   621: fallthrough\n      : @12 (gas: 2)\n   622: u32 [0x20000] = a0\n   627: jump @14 if s0 == 0\n      : @13 (gas: 1)\n   630: ra = 6, jump @15\n      : @14 [@dyn 3] (gas: 1)\n   634: ra = 8, jump @24\n      : @15 [@dyn 4] (gas: 12)\n   639: sp = sp + 0xffffffffffffffa0\n   642: u64 [sp + 0x58] = ra\n   645: u64 [sp + 0x50] = s0\n   648: s0 = sp + 0x60\n   651: sp = sp & 0xffffffffffffffe0\n   654: u64 [sp + 24] = 0\n   657: u64 [sp + 16] = 0\n   660: u64 [sp + 0] = 0x80\n   664: a0 = 0x40\n   667: a1 = sp\n   669: u64 [sp + 8] = 0\n   672: ra = 10, jump @3\n      : @16 [@dyn 5] (gas: 7)\n   677: u64 [sp + 56] = 0\n   680: u64 [sp + 48] = 0\n   683: u64 [sp + 40] = 0\n   686: u64 [sp + 32] = 0\n   689: i32 a0 = sp + 0x20\n   692: ecalli 5 // 'value_transferred'\n   694: fallthrough\n      : @17 (gas: 8)\n   695: a0 = u64 [sp + 0x30]\n   698: a1 = u64 [sp + 0x38]\n   701: a2 = u64 [sp + 0x28]\n   704: a3 = u64 [sp + 0x20]\n   707: a1 = a1 | a2\n   710: a0 = a0 | a3\n   713: a0 = a0 | a1\n   716: jump @19 if a0 == 0\n      : @18 (gas: 7)\n   719: a1 = 0x20010\n   724: i32 a1 = a1 + 0\n   726: a0 = 0x1\n   729: a2 = 0\n   731: ra = 0xe\n   734: ecalli 3 // 'seal_return'\n   736: jump @24\n      : @19 (gas: 2)\n   738: a1 = i32 [0x20004]\n   743: jump @21 if a1 >u 127\n      : @20 (gas: 2)\n   747: u32 [0x20004] = 0x80\n   754: fallthrough\n      : @21 (gas: 6)\n   755: a0 = 0x20010\n   760: i32 a0 = a0 + 0x80\n   764: a1 = 0\n   766: a2 = 0\n   768: ecalli 0 // 'call_data_copy'\n   769: jump @0\n      : @22 (gas: 3)\n   772: a0 = 0x80\n   776: a1 = 0\n   778: ra = 12, jump @5\n      : @23 [@dyn 6] (gas: 6)\n   783: i32 a1 = a0 + 0\n   785: a0 = 0\n   787: a2 = 0\n   789: ra = 0xe\n   792: ecalli 3 // 'seal_return'\n   794: fallthrough\n      : @24 [@dyn 7] (gas: 13)\n   795: sp = sp + 0xfffffffffffffe60\n   799: u64 [sp + 0x198] = ra\n   803: u64 [sp + 0x190] = s0\n   807: u64 [sp + 0x188] = s1\n   811: s0 = sp + 0x1a0\n   815: sp = sp & 0xffffffffffffffe0\n   818: u64 [sp + 248] = 0\n   822: u64 [sp + 240] = 0\n   826: u64 [sp + 224] = 0x80\n   832: a0 = 0x40\n   835: a1 = sp + 0xe0\n   839: u64 [sp + 232] = 0\n   843: ra = 16, jump @3\n      : @25 [@dyn 8] (gas: 3)\n   848: s1 = 0x20000\n   853: a0 = i32 [0x20000]\n   858: jump @43 if a0 <u 4\n      : @26 (gas: 4)\n   863: i32 a0 = sp + 0x100\n   867: a1 = 0\n   869: ecalli 1 // 'call_data_load'\n   871: fallthrough\n      : @27 (gas: 4)\n   872: a0 = u32 [sp + 0x11c]\n   876: a0 = a0 << 0x20\n   879: a1 = 0x57dcee3c00000000\n   889: jump @43 if a0 != a1\n      : @28 (gas: 7)\n   893: u64 [sp + 312] = 0\n   897: u64 [sp + 304] = 0\n   901: u64 [sp + 296] = 0\n   905: u64 [sp + 288] = 0\n   909: i32 a0 = sp + 0x120\n   913: ecalli 5 // 'value_transferred'\n   915: fallthrough\n      : @29 (gas: 8)\n   916: a0 = u64 [sp + 0x130]\n   920: a1 = u64 [sp + 0x138]\n   924: a2 = u64 [sp + 0x128]\n   928: a3 = u64 [sp + 0x120]\n   932: a1 = a1 | a2\n   935: a0 = a0 | a3\n   938: a0 = a0 | a1\n   941: jump @41 if a0 != 0\n      : @30 (gas: 2)\n   945: a0 = i32 [0x20000]\n   950: jump @41 if a0 <=u 35\n      : @31 (gas: 5)\n   955: u64 [sp + 0x38] = s1\n   958: i32 a0 = sp + 0x140\n   962: a1 = 0x4\n   965: ecalli 1 // 'call_data_load'\n   967: fallthrough\n      : @32 (gas: 7)\n   968: a5 = u64 [sp + 0x158]\n   972: a3 = u64 [sp + 0x150]\n   976: a4 = u64 [sp + 0x148]\n   980: a0 = a3 | a5\n   983: a1 = a4 <u 0x1\n   986: a1 = 0 if a0 != 0\n   988: jump @44 if a1 == 0\n      : @33 (gas: 19)\n   992: s1 = u64 [sp + 0x140]\n   996: a0 = u64 [sp + 0x38]\n   999: a0 = u32 [a0]\n  1001: a1 = s1 + 0x23\n  1004: a2 = a1 <u s1\n  1007: t0 = a4 + a2\n  1010: u64 [sp + 0x18] = a4\n  1013: a4 = t0 <u a4\n  1016: a4 = a2 if a2 == 0\n  1019: a4 = a4 + a3\n  1022: u64 [sp + 0x20] = a3\n  1025: a2 = a4 <u a3\n  1028: u64 [sp + 0x28] = a5\n  1031: a2 = a2 + a5\n  1034: a2 = a2 | a4\n  1037: a0 = a1 <u a0\n  1040: a0 = 0 if t0 != 0\n  1042: a0 = 0 if a2 != 0\n  1044: jump @42 if a0 == 0\n      : @34 (gas: 4)\n  1048: i32 a1 = s1 + 0x4\n  1051: i32 a0 = sp + 0x160\n  1055: ecalli 1 // 'call_data_load'\n  1057: fallthrough\n      : @35 (gas: 8)\n  1058: a0 = u64 [sp + 0x178]\n  1062: a2 = u64 [sp + 0x170]\n  1066: t2 = u64 [sp + 0x168]\n  1070: u64 [sp + 0x30] = a0\n  1073: a0 = a0 | a2\n  1076: a3 = t2 <u 0x1\n  1079: a3 = 0 if a0 != 0\n  1081: jump @41 if a3 == 0\n      : @36 (gas: 42)\n  1085: ra = u64 [sp + 0x160]\n  1089: a5 = s1 + 0x24\n  1092: a0 = a5 <u s1\n  1095: a1 = u64 [sp + 0x18]\n  1098: s1 = a1 + a0\n  1101: a3 = s1 <u a1\n  1104: a3 = a0 if a0 == 0\n  1107: a0 = u64 [sp + 0x20]\n  1110: a3 = a3 + a0\n  1113: t0 = a3 <u a0\n  1116: a0 = u64 [sp + 0x28]\n  1119: a0 = a0 + t0\n  1122: u64 [sp + 0x18] = ra\n  1125: ra = ra + a5\n  1128: a1 = ra <u a5\n  1131: a4 = s1 + t2\n  1134: a4 = a4 + a1\n  1137: t0 = a4 ^ s1\n  1140: t1 = a4 <u s1\n  1143: t1 = a1 if t0 == 0\n  1146: u64 [sp + 0x28] = a2\n  1149: a1 = a3 + a2\n  1152: a2 = a1 <u a3\n  1155: t0 = u64 [sp + 0x30]\n  1158: u64 [sp + 0x20] = a0\n  1161: a0 = a0 + t0\n  1164: a0 = a0 + a2\n  1167: a2 = u64 [sp + 0x38]\n  1170: a2 = u32 [a2]\n  1172: t1 = t1 + a1\n  1175: a1 = t1 <u a1\n  1178: a0 = a0 + a1\n  1181: a1 = a2 <u ra\n  1184: a2 = a4 <u 0x1\n  1187: a1 = a1 ^ 0x1\n  1190: a1 = a2 if a4 != 0\n  1193: a2 = a0 <u 0x1\n  1196: a4 = t1 <u 0x1\n  1199: a4 = a2 if a0 != 0\n  1202: a0 = t1 | a0\n  1205: a1 = a4 if a0 != 0\n  1208: jump @44 if a1 == 0\n      : @37 (gas: 15)\n  1212: a0 = u64 [sp + 0x18]\n  1215: u64 [sp + 0x80] = a0\n  1219: u64 [sp + 0xa0] = a5\n  1223: u64 [sp + 0x88] = t2\n  1227: u64 [sp + 0xa8] = s1\n  1231: a0 = u64 [sp + 0x28]\n  1234: u64 [sp + 0x90] = a0\n  1238: u64 [sp + 0xb0] = a3\n  1242: u64 [sp + 0x98] = t0\n  1246: a0 = sp + 0xc0\n  1250: a1 = sp + 0xa0\n  1254: a2 = sp + 0x80\n  1258: a3 = u64 [sp + 0x20]\n  1261: u64 [sp + 0xb8] = a3\n  1265: ra = 18, jump @64\n      : @38 [@dyn 9] (gas: 20)\n  1270: a0 = u64 [sp + 0xd8]\n  1274: u64 [sp + 0x38] = a0\n  1277: a0 = u64 [sp + 0xd0]\n  1281: u64 [sp + 0x30] = a0\n  1284: a0 = u64 [sp + 0xc8]\n  1288: u64 [sp + 0x28] = a0\n  1291: a0 = u64 [sp + 0xc0]\n  1295: u64 [sp + 0x20] = a0\n  1298: a0 = sp + 0x60\n  1301: a1 = 0x40\n  1304: ra = 0x14\n  1307: sp = sp + 0xfffffffffffffff0\n  1310: u64 [sp + 0x8] = ra\n  1313: u64 [sp] = s0\n  1315: a2 = a1\n  1317: s0 = a0\n  1319: a1 = 0x20\n  1322: a0 = a2\n  1324: ra = 0x2\n  1327: jump @5\n      : @39 [@dyn 10] (gas: 12)\n  1330: a0 = u64 [sp + 0x78]\n  1333: a1 = u64 [sp + 0x70]\n  1336: a2 = u64 [sp + 0x68]\n  1339: s1 = u64 [sp + 0x60]\n  1342: a0 = a0 | a2\n  1345: a2 = s1 | a1\n  1348: a2 = a2 | a0\n  1351: a2 = a2 >> 0x20\n  1354: a0 = a0 | a1\n  1357: a0 = a0 << 0x20\n  1360: a0 = a0 | a2\n  1363: jump @47 if a0 == 0\n      : @40 (gas: 1)\n  1366: trap\n      : @41 (gas: 4)\n  1367: a0 = 0\n  1369: a1 = 0\n  1371: ra = 0x16\n  1374: jump @5\n      : @42 (gas: 3)\n  1377: a1 = 0\n  1379: ra = 0x16\n  1382: jump @5\n      : @43 (gas: 3)\n  1385: a1 = 0x20010\n  1390: i32 a1 = a1 + 0\n  1392: jump @46\n      : @44 (gas: 2)\n  1394: a0 = 0\n  1396: ra = 22, jump @5\n      : @45 [@dyn 11] (gas: 2)\n  1401: i32 a1 = a0 + 0\n  1403: fallthrough\n      : @46 (gas: 4)\n  1404: a0 = 0x1\n  1407: a2 = 0\n  1409: ecalli 3 // 'seal_return'\n  1411: fallthrough\n      : @47 (gas: 11)\n  1412: a0 = u64 [sp + 0x20]\n  1415: u64 [sp + 0x40] = a0\n  1418: a0 = u64 [sp + 0x28]\n  1421: u64 [sp + 0x48] = a0\n  1424: a0 = u64 [sp + 0x30]\n  1427: u64 [sp + 0x50] = a0\n  1430: a1 = sp + 0x40\n  1433: a0 = u64 [sp + 0x38]\n  1436: u64 [sp + 0x58] = a0\n  1439: a0 = s1\n  1441: ra = 24, jump @3\n      : @48 [@dyn 12] (gas: 3)\n  1446: a1 = 0x20\n  1449: a0 = s1\n  1451: ra = 26, jump @5\n      : @49 [@dyn 13] (gas: 6)\n  1456: i32 a1 = a0 + 0\n  1458: a2 = 0x20\n  1461: a0 = 0\n  1463: ra = 0x1c\n  1466: ecalli 3 // 'seal_return'\n  1468: fallthrough\n      : @50 [@dyn 14] (gas: 29)\n  1469: sp = sp + 0xffffffffffffff90\n  1472: u64 [sp + 0x68] = ra\n  1475: u64 [sp + 0x60] = s0\n  1478: u64 [sp + 0x58] = s1\n  1481: s0 = sp + 0x70\n  1484: sp = sp & 0xfffffffffffffff0\n  1487: t0 = u64 [a3]\n  1489: a4 = u64 [a2]\n  1491: u64 [sp + 0x8] = a4\n  1494: a5 = u64 [a3 + 0x8]\n  1497: a4 = u64 [a2 + 0x8]\n  1500: t2 = u64 [a3 + 0x10]\n  1503: ra = u64 [a2 + 0x10]\n  1506: s1 = u64 [a3 + 0x18]\n  1509: a2 = u64 [a2 + 0x18]\n  1512: t1 = a5 ^ a4\n  1515: a4 = a5 <u a4\n  1518: a3 = u64 [sp + 0x8]\n  1521: a3 = t0 <u a3\n  1524: a3 = a4 if t1 != 0\n  1527: a4 = s1 ^ a2\n  1530: u64 [sp + 0x8] = s1\n  1533: a2 = s1 <u a2\n  1536: s1 = t2 <u ra\n  1539: s1 = a2 if a4 != 0\n  1542: a2 = t2 ^ ra\n  1545: a2 = a2 | a4\n  1548: a3 = s1 if a2 != 0\n  1551: jump @52 if a3 == 0\n      : @51 (gas: 29)\n  1554: a2 = u64 [a1]\n  1556: t1 = u64 [a1 + 0x18]\n  1559: a4 = u64 [a1 + 0x8]\n  1562: a1 = u64 [a1 + 0x10]\n  1565: a2 = a2 + t0\n  1568: s1 = a2 <u t0\n  1571: a4 = a4 + a5\n  1574: a4 = a4 + s1\n  1577: a3 = a4 ^ a5\n  1580: a5 = a4 <u a5\n  1583: a5 = s1 if a3 == 0\n  1586: a1 = a1 + t2\n  1589: a5 = a5 + a1\n  1592: a3 = a5 <u a1\n  1595: a1 = a1 <u t2\n  1598: s1 = u64 [sp + 0x8]\n  1601: t1 = t1 + s1\n  1604: a1 = a1 + t1\n  1607: a1 = a1 + a3\n  1610: u64 [a0] = a2\n  1612: u64 [a0 + 0x8] = a4\n  1615: u64 [a0 + 0x10] = a5\n  1618: u64 [a0 + 0x18] = a1\n  1621: sp = s0 + 0xffffffffffffff90\n  1624: ra = u64 [sp + 0x68]\n  1627: s0 = u64 [sp + 0x60]\n  1630: s1 = u64 [sp + 0x58]\n  1633: sp = sp + 0x70\n  1636: ret\n      : @52 (gas: 8)\n  1638: u64 [sp + 64] = 0\n  1641: u64 [sp + 56] = 0\n  1644: u64 [sp + 48] = 0\n  1647: a0 = 0x4e487b7100000000\n  1657: a1 = sp + 0x30\n  1660: u64 [sp + 0x48] = a0\n  1663: a0 = 0\n  1665: ra = 30, jump @3\n      : @53 [@dyn 15] (gas: 7)\n  1670: u64 [sp + 40] = 0\n  1673: u64 [sp + 32] = 0\n  1676: u64 [sp + 16] = 0x32\n  1680: a0 = 0x4\n  1683: a1 = sp + 0x10\n  1686: u64 [sp + 24] = 0\n  1689: ra = 32, jump @3\n      : @54 [@dyn 16] (gas: 2)\n  1694: a1 = i32 [0x20004]\n  1699: jump @56 if a1 >u 63\n      : @55 (gas: 2)\n  1703: u32 [0x20004] = 0x40\n  1709: fallthrough\n      : @56 (gas: 7)\n  1710: a1 = 0x20010\n  1715: i32 a1 = a1 + 0\n  1717: a0 = 0x1\n  1720: a2 = 0x24\n  1723: ra = 0x22\n  1726: ecalli 3 // 'seal_return'\n  1728: fallthrough\n      : @57 [@dyn 17] (gas: 16)\n  1729: a2 = u64 [a1]\n  1731: t0 = u64 [a1 + 0x18]\n  1734: a3 = u64 [a1 + 0x8]\n  1737: a5 = u64 [a1 + 0x10]\n  1740: a4 = a2 + 0x1\n  1743: a2 = a4 <u 0x1\n  1746: a2 = a2 + a3\n  1749: a3 = a4 | a2\n  1752: a3 = a3 <u 0x1\n  1755: a3 = a3 + a5\n  1758: a5 = a3 <u a5\n  1761: a5 = a5 + t0\n  1764: t0 = a2 | a5\n  1767: a1 = a4 | a3\n  1770: a1 = a1 | t0\n  1773: jump @59 if a1 == 0\n      : @58 (gas: 5)\n  1776: u64 [a0] = a4\n  1778: u64 [a0 + 0x8] = a2\n  1781: u64 [a0 + 0x10] = a3\n  1784: u64 [a0 + 0x18] = a5\n  1787: ret\n      : @59 (gas: 13)\n  1789: sp = sp + 0xffffffffffffffb0\n  1792: u64 [sp + 0x48] = ra\n  1795: u64 [sp + 0x40] = s0\n  1798: s0 = sp + 0x50\n  1801: sp = sp & 0xfffffffffffffff0\n  1804: u64 [sp + 48] = 0\n  1807: u64 [sp + 40] = 0\n  1810: u64 [sp + 32] = 0\n  1813: a0 = 0x4e487b7100000000\n  1823: a1 = sp + 0x20\n  1826: u64 [sp + 0x38] = a0\n  1829: a0 = 0\n  1831: ra = 36, jump @3\n      : @60 [@dyn 18] (gas: 7)\n  1836: u64 [sp + 24] = 0\n  1839: u64 [sp + 16] = 0\n  1842: u64 [sp + 0] = 0x11\n  1845: a0 = 0x4\n  1848: a1 = sp\n  1850: u64 [sp + 8] = 0\n  1853: ra = 38, jump @3\n      : @61 [@dyn 19] (gas: 2)\n  1858: a1 = i32 [0x20004]\n  1863: jump @63 if a1 >u 63\n      : @62 (gas: 2)\n  1867: u32 [0x20004] = 0x40\n  1873: fallthrough\n      : @63 (gas: 7)\n  1874: a1 = 0x20010\n  1879: i32 a1 = a1 + 0\n  1881: a0 = 0x1\n  1884: a2 = 0x24\n  1887: ra = 0x28\n  1890: ecalli 3 // 'seal_return'\n  1892: fallthrough\n      : @64 [@dyn 20] (gas: 27)\n  1893: sp = sp + 0xfffffffffffffc20\n  1897: a3 = sp + 0x300\n  1901: u64 [a3 + 0xd8] = ra\n  1905: u64 [a3 + 0xd0] = s0\n  1909: u64 [a3 + 0xc8] = s1\n  1913: s0 = sp + 0x3e0\n  1917: sp = sp & 0xffffffffffffffe0\n  1920: u64 [sp + 0x10] = a0\n  1923: a4 = u64 [a2 + 0x18]\n  1926: a5 = u64 [a2 + 0x10]\n  1929: a3 = u64 [a2]\n  1931: s1 = u64 [a2 + 0x8]\n  1934: a0 = a4 >u 0\n  1936: a2 = a5 >u 0\n  1938: a2 = a0 if a4 != 0\n  1941: a0 = s1 >u 0\n  1943: u64 [sp + 0x40] = a3\n  1946: a3 = a3 <u 0x4\n  1949: a3 = a3 ^ 0x1\n  1952: u64 [sp + 0x38] = s1\n  1955: a3 = a0 if s1 != 0\n  1958: u64 [sp + 0x28] = a4\n  1961: u64 [sp + 0x20] = a5\n  1964: a5 = a5 | a4\n  1967: a3 = a2 if a5 != 0\n  1970: a4 = 0x14\n  1973: jump @113 if a3 == 0\n      : @65 (gas: 18)\n  1977: u64 [sp + 0x118] = a5\n  1981: a0 = u64 [a1]\n  1983: s1 = u64 [a1 + 0x18]\n  1986: a2 = u64 [a1 + 0x8]\n  1989: a3 = u64 [a1 + 0x10]\n  1992: u64 [sp + 0x50] = a0\n  1995: a1 = a0 + 0x1\n  1998: a0 = a1 <u 0x1\n  2001: u64 [sp + 0x48] = a2\n  2004: a0 = a0 + a2\n  2007: a2 = a1 | a0\n  2010: a2 = a2 <u 0x1\n  2013: a2 = a2 + a3\n  2016: u64 [sp + 0x58] = a3\n  2019: a3 = a2 <u a3\n  2022: a3 = a3 + s1\n  2025: a0 = a0 | a3\n  2028: t0 = 42, jump @125\n      : @66 [@dyn 21] (gas: 1)\n  2033: jump @117 if a0 != 0\n      : @67 (gas: 4)\n  2037: i32 a1 = a1 + 0\n  2039: i32 a0 = sp + 0x300\n  2043: ecalli 1 // 'call_data_load'\n  2045: fallthrough\n      : @68 (gas: 13)\n  2046: a1 = u64 [sp + 0x58]\n  2049: a0 = u64 [sp + 0x50]\n  2052: a0 = a0 | a1\n  2055: a2 = u64 [sp + 0x48]\n  2058: u64 [sp + 0x30] = s1\n  2061: a2 = a2 | s1\n  2064: a0 = a0 | a2\n  2067: a0 = a0 >> 0x20\n  2070: u64 [sp + 0x130] = a2\n  2074: a1 = a1 | a2\n  2077: a1 = a1 << 0x20\n  2080: a0 = a0 | a1\n  2083: jump @117 if a0 != 0\n      : @69 (gas: 8)\n  2087: a0 = u64 [sp + 0x318]\n  2091: u64 [sp + 0x128] = a0\n  2095: s1 = u64 [sp + 0x50]\n  2098: i32 a1 = s1 + 0\n  2100: i32 a0 = sp + 0x320\n  2104: u64 [sp + 0x138] = a1\n  2108: ecalli 1 // 'call_data_load'\n  2110: fallthrough\n      : @70 (gas: 10)\n  2111: a0 = u64 [sp + 0x58]\n  2114: a1 = u64 [sp + 0x30]\n  2117: a0 = a0 | a1\n  2120: a2 = s1\n  2122: a1 = 0xfffffffe\n  2132: a1 = a2 <u a1\n  2135: a2 = u64 [sp + 0x48]\n  2138: a1 = 0 if a2 != 0\n  2140: a1 = 0 if a0 != 0\n  2142: jump @117 if a1 == 0\n      : @71 (gas: 7)\n  2146: a0 = u64 [sp + 0x338]\n  2150: u64 [sp + 0x120] = a0\n  2154: a1 = u64 [sp + 0x138]\n  2158: i32 a1 = a1 + 0x2\n  2161: i32 a0 = sp + 0x340\n  2165: ecalli 1 // 'call_data_load'\n  2167: fallthrough\n      : @72 (gas: 8)\n  2168: s1 = 0xfffffffd\n  2178: a0 = u64 [sp + 0x50]\n  2181: a0 = a0 ^ s1\n  2184: a1 = u64 [sp + 0x58]\n  2187: a0 = a0 | a1\n  2190: a1 = u64 [sp + 0x130]\n  2194: a0 = a0 | a1\n  2197: jump @117 if a0 == 0\n      : @73 (gas: 16)\n  2201: a0 = u64 [sp + 0x358]\n  2205: a0 = a0 >> 0x38\n  2208: a0 = a0 << 0x28\n  2211: u64 [sp + 0x130] = a0\n  2215: a0 = u64 [sp + 0x120]\n  2219: a0 = a0 >> 0x38\n  2222: a0 = a0 << 0x38\n  2225: a1 = u64 [sp + 0x128]\n  2229: a1 = a1 >> 0x38\n  2232: a1 = a1 << 0x30\n  2235: s1 = a0 | a1\n  2238: a1 = u64 [sp + 0x138]\n  2242: i32 a1 = a1 + 0x3\n  2245: i32 a0 = sp + 0x360\n  2249: ecalli 1 // 'call_data_load'\n  2251: fallthrough\n      : @74 (gas: 8)\n  2252: a0 = u64 [sp + 0x378]\n  2256: a0 = a0 >> 0x38\n  2259: a0 = a0 << 0x20\n  2262: a1 = u64 [sp + 0x130]\n  2266: a0 = a0 | a1\n  2269: a0 = a0 | s1\n  2272: a1 = 0x95ea7b300000000\n  2282: jump @102 if a0 == a1\n      : @75 (gas: 2)\n  2286: a1 = 0xa9059cbb00000000\n  2296: jump @114 if a0 != a1\n      : @76 (gas: 7)\n  2300: a0 = u64 [sp + 0x40]\n  2303: a0 = a0 <u 0x44\n  2306: a1 = u64 [sp + 0x38]\n  2309: a0 = 0 if a1 != 0\n  2311: a1 = u64 [sp + 0x118]\n  2315: a0 = 0 if a1 != 0\n  2317: jump @112 if a0 != 0\n      : @77 (gas: 9)\n  2321: u64 [sp + 216] = 0\n  2325: t1 = 0\n  2327: t2 = 0\n  2329: a4 = 0\n  2331: ra = 0\n  2333: a5 = 0\n  2335: s1 = 0\n  2337: t0 = 0x24\n  2340: fallthrough\n      : @78 (gas: 10)\n  2341: a0 = ra >u 0\n  2343: a1 = t0 <u 0x44\n  2346: a1 = a1 ^ 0x1\n  2349: a1 = a0 if ra != 0\n  2352: a0 = a5 >u 0\n  2354: a2 = s1 >u 0\n  2356: a2 = a0 if s1 == 0\n  2359: a0 = a5 | s1\n  2362: a2 = a1 if a0 == 0\n  2365: jump @115 if a2 != 0\n      : @79 (gas: 22)\n  2369: a3 = u64 [sp + 0xd8]\n  2373: a0 = a3 >> 0x38\n  2376: a1 = t1 << 0x8\n  2379: a0 = a0 | a1\n  2382: u64 [sp + 0x80] = a0\n  2386: a0 = t1 >> 0x38\n  2389: a1 = t2 << 0x8\n  2392: a2 = a1 | a0\n  2395: a0 = t2 >> 0x38\n  2398: a1 = a4 << 0x8\n  2401: a0 = a0 | a1\n  2404: u64 [sp + 0x78] = a0\n  2407: a0 = a3 | t2\n  2410: a1 = t1 | a4\n  2413: a0 = a0 | a1\n  2416: a1 = a3 << 0x8\n  2419: u64 [sp + 0x90] = a2\n  2423: u64 [sp + 0x88] = a1\n  2427: u64 [sp + 0x70] = t0\n  2430: u64 [sp + 0x68] = ra\n  2433: u64 [sp + 0x60] = a5\n  2436: jump @97 if a0 == 0\n      : @80 (gas: 74)\n  2440: u64 [sp + 0x18] = s1\n  2443: a0 = a0 <u 0x1\n  2446: a1 = a1 | a2\n  2449: ra = u64 [sp + 0x80]\n  2453: t0 = u64 [sp + 0x78]\n  2456: a2 = ra | t0\n  2459: a1 = a1 | a2\n  2462: a1 = a1 <u 0x1\n  2465: a0 = a0 | a1\n  2468: u64 [sp + 0x138] = a0\n  2472: a1 = clz t2\n  2474: a1 = a1 + 0x40\n  2477: a0 = t1\n  2479: t1 = clz a4\n  2481: t1 = a1 if a4 == 0\n  2484: a1 = clz a3\n  2486: a1 = a1 + 0x40\n  2489: a2 = clz a0\n  2491: u64 [sp + 0xc8] = a0\n  2495: a2 = a1 if a0 == 0\n  2498: a1 = a2 + 0x80\n  2502: u64 [sp + 0xd0] = t2\n  2506: u64 [sp + 0xc0] = a4\n  2510: a5 = t2 | a4\n  2513: t1 = a1 if a5 == 0\n  2516: a4 = a1 <u a2\n  2519: a4 = 0 if a5 != 0\n  2521: a0 = u64 [sp + 0x90]\n  2525: a1 = clz a0\n  2527: a1 = a1 + 0x40\n  2530: a5 = clz t0\n  2532: a5 = a1 if t0 == 0\n  2535: a0 = u64 [sp + 0x88]\n  2539: a1 = clz a0\n  2541: a1 = a1 + 0x40\n  2544: a2 = clz ra\n  2546: a2 = a1 if ra == 0\n  2549: a1 = a2 + 0x80\n  2553: a0 = u64 [sp + 0x90]\n  2557: s1 = a0 | t0\n  2560: a5 = a1 if s1 == 0\n  2563: a0 = a1 <u a2\n  2566: a0 = 0 if s1 != 0\n  2568: a1 = a4 ^ a0\n  2571: s1 = a4 <u a0\n  2574: a2 = t1 <u a5\n  2577: s1 = a2 if a1 == 0\n  2580: a1 = s1 <u 0x1\n  2583: t2 = a1 + 0xffffffffffffffff\n  2586: a3 = -s1\n  2588: a4 = a4 - a0\n  2591: a4 = a4 - a2\n  2594: a1 = t1 - a5\n  2597: t1 = u64 [sp + 0x88]\n  2601: u64 [sp + 0x130] = a3\n  2605: a0 = a3 >u 0\n  2607: a2 = t2 >u 0\n  2609: a2 = a0 if t2 == 0\n  2612: a0 = a4 >u 0\n  2614: a3 = a1 <u 0x100\n  2618: a3 = a3 ^ 0x1\n  2621: a3 = a0 if a4 != 0\n  2624: a3 = a2 if s1 != 0\n  2627: a2 = u64 [sp + 0x138]\n  2631: a2 = a2 | a3\n  2634: a0 = t0\n  2636: a0 = 0 if a2 != 0\n  2638: a5 = u64 [sp + 0x90]\n  2642: a5 = 0 if a2 != 0\n  2644: a3 = ra\n  2646: a3 = 0 if a2 != 0\n  2648: s1 = t1\n  2650: s1 = 0 if a2 != 0\n  2652: jump @96 if a2 != 0\n      : @81 (gas: 7)\n  2656: t0 = a1\n  2658: a2 = a1 ^ 0xff\n  2662: ra = u64 [sp + 0x130]\n  2666: a2 = a2 | ra\n  2669: a1 = a4 | t2\n  2672: a1 = a1 | a2\n  2675: jump @96 if a1 == 0\n      : @82 (gas: 19)\n  2679: u64 [sp + 0x120] = t0\n  2683: a1 = t0 + 0x1\n  2686: u64 [sp + 0x138] = a1\n  2690: a0 = a1 <u 0x1\n  2693: a0 = a0 + a4\n  2696: u64 [sp + 0x118] = a0\n  2700: a0 = a0 | a1\n  2703: a0 = a0 <u 0x1\n  2706: a0 = a0 + ra\n  2709: u64 [sp + 0x108] = a0\n  2713: a0 = a0 <u ra\n  2716: a0 = a0 + t2\n  2719: u64 [sp + 0x110] = a0\n  2723: a1 = 0xff - t0\n  2727: u64 [sp + 0x130] = a1\n  2731: a2 = 0x80 - a1\n  2735: a0 = t1\n  2737: a1 = u64 [sp + 0x80]\n  2741: ra = 44, jump @126\n      : @83 [@dyn 22] (gas: 7)\n  2746: u64 [sp + 0x128] = a0\n  2750: u64 [sp + 0xf8] = a1\n  2754: a0 = u64 [sp + 0x90]\n  2758: s1 = u64 [sp + 0x78]\n  2761: a1 = s1\n  2763: a2 = u64 [sp + 0x130]\n  2767: ra = 46, jump @131\n      : @84 [@dyn 23] (gas: 9)\n  2772: u64 [sp + 0x100] = a0\n  2776: a0 = u64 [sp + 0xf8]\n  2780: a0 = a0 | a1\n  2783: u64 [sp + 0xf0] = a0\n  2787: a1 = u64 [sp + 0x120]\n  2791: a2 = 0x7f - a1\n  2794: a0 = u64 [sp + 0x88]\n  2798: a1 = u64 [sp + 0x80]\n  2802: ra = 48, jump @131\n      : @85 [@dyn 24] (gas: 17)\n  2807: a2 = u64 [sp + 0x130]\n  2811: a3 = a2 <u 0x80\n  2815: u64 [sp + 0xf8] = a3\n  2819: a4 = u64 [sp + 0xf0]\n  2823: a1 = a4 if a3 != 0\n  2826: a1 = s1 if a2 == 0\n  2829: u64 [sp + 0x120] = a1\n  2833: a1 = u64 [sp + 0x128]\n  2837: a4 = u64 [sp + 0x100]\n  2841: a1 = a1 | a4\n  2844: a1 = a0 if a3 == 0\n  2847: a0 = u64 [sp + 0x90]\n  2851: a1 = a0 if a2 == 0\n  2854: u64 [sp + 0x128] = a1\n  2858: a0 = u64 [sp + 0x88]\n  2862: a1 = u64 [sp + 0x80]\n  2866: ra = 50, jump @131\n      : @86 [@dyn 25] (gas: 13)\n  2871: a2 = u64 [sp + 0x108]\n  2875: a3 = u64 [sp + 0x110]\n  2879: a5 = u64 [sp + 0x118]\n  2883: a5 = a5 | a3\n  2886: s1 = u64 [sp + 0x138]\n  2890: s1 = s1 | a2\n  2893: a5 = a5 | s1\n  2896: a2 = u64 [sp + 0xf8]\n  2900: a1 = 0 if a2 == 0\n  2902: u64 [sp + 0x100] = a1\n  2906: a0 = 0 if a2 == 0\n  2908: u64 [sp + 0x130] = a0\n  2912: jump @94 if a5 == 0\n      : @87 (gas: 5)\n  2916: s1 = u64 [sp + 0x138]\n  2920: a2 = s1 + 0xffffffffffffff80\n  2923: a0 = u64 [sp + 0x90]\n  2927: a1 = u64 [sp + 0x78]\n  2930: ra = 52, jump @126\n      : @88 [@dyn 26] (gas: 6)\n  2935: u64 [sp + 0xf8] = a0\n  2939: u64 [sp + 0xe8] = a1\n  2943: a0 = u64 [sp + 0x88]\n  2947: a1 = u64 [sp + 0x80]\n  2951: a2 = s1\n  2953: ra = 54, jump @126\n      : @89 [@dyn 27] (gas: 6)\n  2958: u64 [sp + 0xe0] = a0\n  2962: u64 [sp + 0xf0] = a1\n  2966: a2 = 0x80 - s1\n  2970: a0 = u64 [sp + 0x90]\n  2974: a1 = u64 [sp + 0x78]\n  2977: ra = 56, jump @131\n      : @90 [@dyn 28] (gas: 19)\n  2982: a4 = u64 [sp + 0xf0]\n  2986: a4 = a4 | a1\n  2989: a2 = s1\n  2991: a1 = s1 <u 0x80\n  2995: u64 [sp + 0xf0] = a1\n  2999: a3 = u64 [sp + 0xe8]\n  3003: a4 = a3 if a1 == 0\n  3006: a3 = u64 [sp + 0x80]\n  3010: a4 = a3 if s1 == 0\n  3013: u64 [sp + 0xe8] = a4\n  3017: s1 = u64 [sp + 0xe0]\n  3021: s1 = s1 | a0\n  3024: a0 = u64 [sp + 0xf8]\n  3028: s1 = a0 if a1 == 0\n  3031: a0 = u64 [sp + 0x88]\n  3035: s1 = a0 if a2 == 0\n  3038: a0 = u64 [sp + 0x90]\n  3042: a1 = u64 [sp + 0x78]\n  3045: ra = 58, jump @126\n      : @91 [@dyn 29] (gas: 25)\n  3050: t2 = s1\n  3052: t1 = u64 [sp + 0xe8]\n  3056: t0 = a0\n  3058: ra = 0\n  3060: a0 = u64 [sp + 0xf0]\n  3064: a1 = 0 if a0 == 0\n  3066: t0 = 0 if a0 == 0\n  3068: a2 = u64 [sp + 0xd8]\n  3072: a0 = a2 <u 0x1\n  3075: a3 = u64 [sp + 0xc8]\n  3079: a0 = a3 - a0\n  3082: u64 [sp + 0xb0] = a0\n  3086: a0 = a2 | a3\n  3089: a0 = a0 <u 0x1\n  3092: a3 = u64 [sp + 0xd0]\n  3096: a4 = a3 - a0\n  3099: u64 [sp + 0xa8] = a4\n  3103: a0 = a3 <u a0\n  3106: a3 = u64 [sp + 0xc0]\n  3110: a3 = a3 - a0\n  3113: u64 [sp + 0xa0] = a3\n  3117: u64 [sp + 0xd8] = a2\n  3121: a2 = a2 + 0xffffffffffffffff\n  3124: u64 [sp + 0x98] = a2\n  3128: fallthrough\n      : @92 (gas: 103)\n  3129: u64 [sp + 0xf8] = ra\n  3133: u64 [sp + 184] = 0\n  3137: a4 = t2 >> 0x3f\n  3140: a3 = t1 << 0x1\n  3143: a3 = a3 | a4\n  3146: a4 = t2 << 0x1\n  3149: ra = u64 [sp + 0x120]\n  3153: a2 = ra >> 0x3f\n  3156: a2 = a2 | a4\n  3159: u64 [sp + 0xe8] = a2\n  3163: a0 = u64 [sp + 0xb0]\n  3167: s1 = a0 ^ a3\n  3170: a4 = a0 <u a3\n  3173: a0 = u64 [sp + 0x98]\n  3177: t2 = a0 <u a2\n  3180: t2 = a4 if s1 != 0\n  3183: a1 = a1 << 0x1\n  3186: a2 = t0 >> 0x3f\n  3189: a1 = a1 | a2\n  3192: u64 [sp + 0xf0] = a1\n  3196: a2 = t1 >> 0x3f\n  3199: a0 = t0 << 0x1\n  3202: t1 = a0 | a2\n  3205: a0 = ra << 0x1\n  3208: a4 = u64 [sp + 0x128]\n  3212: a2 = a4 >> 0x3f\n  3215: a0 = a0 | a2\n  3218: a2 = a4 << 0x1\n  3221: s1 = u64 [sp + 0x100]\n  3225: a4 = s1 >> 0x3f\n  3228: a2 = a2 | a4\n  3231: a4 = s1 << 0x1\n  3234: s1 = u64 [sp + 0x130]\n  3238: ra = s1 >> 0x3f\n  3241: a4 = a4 | ra\n  3244: s1 = s1 << 0x1\n  3247: a1 = u64 [sp + 0xf8]\n  3251: s1 = s1 | a1\n  3254: u64 [sp + 0x130] = s1\n  3258: a4 = a4 | 0\n  3260: u64 [sp + 0x100] = a4\n  3264: a2 = a2 | 0\n  3266: u64 [sp + 0x128] = a2\n  3270: a0 = a0 | 0\n  3272: u64 [sp + 0x120] = a0\n  3276: a2 = u64 [sp + 0xa8]\n  3280: a0 = a2 - t1\n  3283: a0 = a0 <u t2\n  3286: a2 = a2 <u t1\n  3289: a4 = u64 [sp + 0xa0]\n  3293: t2 = u64 [sp + 0xf0]\n  3297: a4 = a4 - t2\n  3300: a4 = a4 - a2\n  3303: a4 = a4 - a0\n  3306: a4 = a4 >>a 0x3f\n  3309: a0 = u64 [sp + 0xd8]\n  3313: a1 = a4 & a0\n  3316: u64 [sp + 0xe0] = a1\n  3320: a5 = u64 [sp + 0xc8]\n  3324: a5 = a5 & a4\n  3327: a0 = a3 ^ a5\n  3330: s1 = a3 <u a5\n  3333: t0 = u64 [sp + 0xe8]\n  3337: ra = t0 <u a1\n  3340: s1 = ra if a0 == 0\n  3343: a2 = u64 [sp + 0xd0]\n  3347: a2 = a2 & a4\n  3350: a1 = t1 - a2\n  3353: a0 = a1 - s1\n  3356: u64 [sp + 0xf8] = a0\n  3360: a0 = a1 <u s1\n  3363: a2 = t1 <u a2\n  3366: s1 = u64 [sp + 0xc0]\n  3370: s1 = s1 & a4\n  3373: a1 = t2 - s1\n  3376: a1 = a1 - a2\n  3379: a1 = a1 - a0\n  3382: a3 = a3 - a5\n  3385: t1 = a3 - ra\n  3388: a0 = u64 [sp + 0xe0]\n  3392: t2 = t0 - a0\n  3395: a5 = u64 [sp + 0x138]\n  3399: s1 = u64 [sp + 0x118]\n  3403: a0 = a5 | s1\n  3406: a0 = a0 <u 0x1\n  3409: a3 = u64 [sp + 0x108]\n  3413: a2 = a3 <u a0\n  3416: a0 = a3 - a0\n  3419: a3 = a5 <u 0x1\n  3422: s1 = s1 - a3\n  3425: a3 = u64 [sp + 0x110]\n  3429: a3 = a3 - a2\n  3432: a5 = a5 + 0xffffffffffffffff\n  3435: u64 [sp + 0x118] = s1\n  3439: u64 [sp + 0x110] = a3\n  3443: a2 = s1 | a3\n  3446: t0 = u64 [sp + 0xf8]\n  3450: u64 [sp + 0x138] = a5\n  3454: a3 = a5 | a0\n  3457: a2 = a2 | a3\n  3460: ra = a4 & 0x1\n  3463: u64 [sp + 0x108] = a0\n  3467: jump @92 if a2 != 0\n      : @93 (gas: 1)\n  3471: jump @95\n      : @94 (gas: 3)\n  3473: ra = 0\n  3475: u64 [sp + 184] = 0\n  3479: fallthrough\n      : @95 (gas: 20)\n  3480: a3 = u64 [sp + 0x128]\n  3484: a0 = a3 >> 0x3f\n  3487: a1 = u64 [sp + 0x120]\n  3491: a1 = a1 << 0x1\n  3494: a0 = a0 | a1\n  3497: a5 = u64 [sp + 0x100]\n  3501: a1 = a5 >> 0x3f\n  3504: a3 = a3 << 0x1\n  3507: a1 = a1 | a3\n  3510: a2 = u64 [sp + 0x130]\n  3514: a3 = a2 >> 0x3f\n  3517: a5 = a5 << 0x1\n  3520: s1 = a2 << 0x1\n  3523: s1 = ra | s1\n  3526: a2 = u64 [sp + 0xb8]\n  3530: a3 = a3 | a2\n  3533: a3 = a3 | a5\n  3536: a5 = a2 | a1\n  3539: a0 = a0 | a2\n  3542: fallthrough\n      : @96 (gas: 9)\n  3543: a1 = s1 ^ 0x100\n  3547: a1 = a1 | a5\n  3550: a0 = a0 | a3\n  3553: a0 = a0 | a1\n  3556: t0 = u64 [sp + 0x70]\n  3559: ra = u64 [sp + 0x68]\n  3562: a5 = u64 [sp + 0x60]\n  3565: s1 = u64 [sp + 0x18]\n  3568: jump @118 if a0 != 0\n      : @97 (gas: 26)\n  3572: u64 [sp + 0x240] = t0\n  3576: a0 = u64 [sp + 0x40]\n  3579: u64 [sp + 0x260] = a0\n  3583: a0 = u64 [sp + 0x50]\n  3586: u64 [sp + 0x280] = a0\n  3590: u64 [sp + 0x248] = ra\n  3594: a0 = u64 [sp + 0x38]\n  3597: u64 [sp + 0x268] = a0\n  3601: a0 = u64 [sp + 0x48]\n  3604: u64 [sp + 0x288] = a0\n  3608: u64 [sp + 0x250] = a5\n  3612: a0 = u64 [sp + 0x20]\n  3615: a5 = sp + 0x200\n  3619: u64 [a5 + 0x70] = a0\n  3622: a0 = u64 [sp + 0x58]\n  3625: u64 [a5 + 0x90] = a0\n  3629: u64 [a5 + 0x58] = s1\n  3632: a0 = u64 [sp + 0x28]\n  3635: u64 [a5 + 0x78] = a0\n  3638: a0 = sp + 0x2a0\n  3642: a1 = sp + 0x280\n  3646: a2 = sp + 0x260\n  3650: a3 = sp + 0x240\n  3654: a4 = u64 [sp + 0x30]\n  3657: u64 [a5 + 0x98] = a4\n  3661: ra = 60, jump @50\n      : @98 [@dyn 30] (gas: 7)\n  3666: a4 = sp + 0x200\n  3670: a0 = u64 [a4 + 0xb8]\n  3674: a2 = u64 [a4 + 0xb0]\n  3678: a3 = u64 [a4 + 0xa8]\n  3682: a1 = u64 [a4 + 0xa0]\n  3686: a0 = a0 | a3\n  3689: t0 = 62, jump @125\n      : @99 [@dyn 31] (gas: 1)\n  3694: jump @117 if a0 != 0\n      : @100 (gas: 18)\n  3698: i32 a1 = a1 + 0\n  3700: i32 a0 = sp + 0x380\n  3704: ecalli 1 // 'call_data_load'\n  3706: a0 = u8 [sp + 0x39f]\n  3710: a1 = u64 [sp + 0x88]\n  3714: a0 = a0 | a1\n  3717: u64 [sp + 0xd8] = a0\n  3721: a3 = sp + 0x200\n  3725: u64 [a3 + 0x18] = s1\n  3728: a0 = u64 [sp + 0x60]\n  3731: u64 [a3 + 0x10] = a0\n  3734: a0 = u64 [sp + 0x68]\n  3737: u64 [a3 + 0x8] = a0\n  3740: a0 = sp + 0x220\n  3744: a1 = sp + 0x200\n  3748: a2 = u64 [sp + 0x70]\n  3751: u64 [a3] = a2\n  3753: ra = 64, jump @57\n      : @101 [@dyn 32] (gas: 9)\n  3758: a0 = sp + 0x200\n  3762: s1 = u64 [a0 + 0x38]\n  3765: a5 = u64 [a0 + 0x30]\n  3768: ra = u64 [a0 + 0x28]\n  3771: t0 = u64 [a0 + 0x20]\n  3774: t1 = u64 [sp + 0x80]\n  3778: t2 = u64 [sp + 0x90]\n  3782: a4 = u64 [sp + 0x78]\n  3785: jump @78\n      : @102 (gas: 8)\n  3788: a0 = u64 [sp + 0x40]\n  3791: a0 = a0 <u 0x44\n  3794: a1 = u64 [sp + 0x38]\n  3797: a0 = 0 if a1 != 0\n  3799: a1 = u64 [sp + 0x118]\n  3803: a0 = 0 if a1 != 0\n  3805: t0 = u64 [sp + 0x30]\n  3808: jump @112 if a0 != 0\n      : @103 (gas: 9)\n  3812: s1 = 0\n  3814: a5 = 0\n  3816: a4 = 0\n  3818: t1 = 0x24\n  3821: i32 a0 = sp + 0x3a0\n  3825: u64 [sp + 0x120] = a0\n  3829: a0 = 0xff00000000000000\n  3839: u64 [sp + 0x118] = a0\n  3843: fallthrough\n      : @104 (gas: 12)\n  3844: a0 = s1 >u 0\n  3846: a1 = t1 <u 0x44\n  3849: a1 = a1 ^ 0x1\n  3852: a1 = a0 if s1 != 0\n  3855: a0 = a5 >u 0\n  3857: a2 = a4 >u 0\n  3859: a2 = a0 if a4 == 0\n  3862: a0 = a5 | a4\n  3865: a2 = a1 if a0 == 0\n  3868: a1 = u64 [sp + 0x48]\n  3871: a3 = u64 [sp + 0x58]\n  3874: jump @116 if a2 != 0\n      : @105 (gas: 26)\n  3878: u64 [sp + 0x128] = t1\n  3882: u64 [sp + 0x180] = t1\n  3886: a0 = u64 [sp + 0x40]\n  3889: u64 [sp + 0x1a0] = a0\n  3893: a0 = u64 [sp + 0x50]\n  3896: u64 [sp + 0x1c0] = a0\n  3900: u64 [sp + 0x130] = s1\n  3904: u64 [sp + 0x188] = s1\n  3908: a0 = u64 [sp + 0x38]\n  3911: u64 [sp + 0x1a8] = a0\n  3915: u64 [sp + 0x1c8] = a1\n  3919: s1 = a5\n  3921: u64 [sp + 0x190] = a5\n  3925: a0 = u64 [sp + 0x20]\n  3928: u64 [sp + 0x1b0] = a0\n  3932: u64 [sp + 0x1d0] = a3\n  3936: u64 [sp + 0x138] = a4\n  3940: u64 [sp + 0x198] = a4\n  3944: a0 = u64 [sp + 0x28]\n  3947: u64 [sp + 0x1b8] = a0\n  3951: a0 = sp + 0x1e0\n  3955: a1 = sp + 0x1c0\n  3959: a2 = sp + 0x1a0\n  3963: a3 = sp + 0x180\n  3967: u64 [sp + 0x1d8] = t0\n  3971: ra = 66, jump @50\n      : @106 [@dyn 33] (gas: 6)\n  3976: a0 = u64 [sp + 0x1f8]\n  3980: a2 = u64 [sp + 0x1f0]\n  3984: a3 = u64 [sp + 0x1e8]\n  3988: a1 = u64 [sp + 0x1e0]\n  3992: a0 = a0 | a3\n  3995: t0 = 68, jump @125\n      : @107 [@dyn 34] (gas: 1)\n  4000: jump @117 if a0 != 0\n      : @108 (gas: 4)\n  4004: i32 a1 = a1 + 0\n  4006: a0 = u64 [sp + 0x120]\n  4010: ecalli 1 // 'call_data_load'\n  4012: fallthrough\n      : @109 (gas: 9)\n  4013: a0 = u64 [sp + 0x3b8]\n  4017: a1 = u64 [sp + 0x3b0]\n  4021: a2 = u64 [sp + 0x118]\n  4025: a2 = a2 ^ a0\n  4028: a1 = a1 | a2\n  4031: a0 = a0 >> 0x38\n  4034: a0 = a0 <u 0xff\n  4038: a0 = 0 if a1 == 0\n  4040: jump @112 if a0 != 0\n      : @110 (gas: 10)\n  4043: a0 = u64 [sp + 0x128]\n  4047: u64 [sp + 0x140] = a0\n  4051: a0 = u64 [sp + 0x130]\n  4055: u64 [sp + 0x148] = a0\n  4059: u64 [sp + 0x150] = s1\n  4063: a0 = sp + 0x160\n  4067: a1 = sp + 0x140\n  4071: a2 = u64 [sp + 0x138]\n  4075: u64 [sp + 0x158] = a2\n  4079: ra = 70, jump @57\n      : @111 [@dyn 35] (gas: 6)\n  4084: a4 = u64 [sp + 0x178]\n  4088: a5 = u64 [sp + 0x170]\n  4092: s1 = u64 [sp + 0x168]\n  4096: t1 = u64 [sp + 0x160]\n  4100: t0 = u64 [sp + 0x30]\n  4103: jump @104\n      : @112 (gas: 2)\n  4106: a4 = 0\n  4108: fallthrough\n      : @113 (gas: 12)\n  4109: a1 = u64 [sp + 0x10]\n  4112: u64 [a1] = a4\n  4114: u64 [a1 + 8] = 0\n  4117: u64 [a1 + 16] = 0\n  4120: u64 [a1 + 24] = 0\n  4123: sp = s0 + 0xfffffffffffffc20\n  4127: a0 = sp + 0x300\n  4131: ra = u64 [a0 + 0xd8]\n  4135: s0 = u64 [a0 + 0xd0]\n  4139: s1 = u64 [a0 + 0xc8]\n  4143: sp = sp + 0x3e0\n  4147: ret\n      : @114 (gas: 2)\n  4149: a4 = 0x14\n  4152: jump @113\n      : @115 (gas: 12)\n  4154: a2 = u64 [sp + 0xd8]\n  4158: a1 = a2 >u 0xf4240\n  4163: a2 = t1 >u 0\n  4165: a2 = a1 if t1 == 0\n  4168: a1 = t2 >u 0\n  4170: a3 = a4 >u 0\n  4172: a3 = a1 if a4 == 0\n  4175: a1 = t2 | a4\n  4178: a2 = a3 if a1 != 0\n  4181: a4 = 0x1e\n  4184: a4 = 0 if a2 == 0\n  4186: jump @113\n      : @116 (gas: 2)\n  4188: a4 = 0x28\n  4191: jump @113\n      : @117 (gas: 1)\n  4193: trap\n      : @118 (gas: 9)\n  4194: a2 = sp + 0x200\n  4198: u64 [a2 + 240] = 0\n  4202: u64 [a2 + 232] = 0\n  4206: u64 [a2 + 224] = 0\n  4210: a0 = 0x4e487b7100000000\n  4220: a1 = sp + 0x2e0\n  4224: u64 [a2 + 0xf8] = a0\n  4228: a0 = 0\n  4230: ra = 72, jump @3\n      : @119 [@dyn 36] (gas: 8)\n  4235: a2 = sp + 0x200\n  4239: u64 [a2 + 216] = 0\n  4243: u64 [a2 + 208] = 0\n  4247: u64 [a2 + 192] = 0x11\n  4252: a0 = 0x4\n  4255: a1 = sp + 0x2c0\n  4259: u64 [a2 + 200] = 0\n  4263: ra = 74, jump @3\n      : @120 [@dyn 37] (gas: 3)\n  4268: a1 = 0x24\n  4271: a0 = 0\n  4273: ra = 76, jump @5\n      : @121 [@dyn 38] (gas: 7)\n  4278: i32 a1 = a0 + 0\n  4280: a0 = 0x1\n  4283: a2 = 0x24\n  4286: ecalli 3 // 'seal_return'\n  4288: a0 = 0\n  4290: ra = 0x4e\n  4293: jump @11\n      : @122 [export #0: 'call'] (gas: 2)\n  4296: a0 = 0\n  4298: ra = 78, jump @11\n      : @123 [@dyn 39] [export #1: 'deploy'] (gas: 2)\n  4303: a0 = 0x1\n  4306: ra = 80, jump @11\n      : @124 [@dyn 40] (gas: 16)\n  4311: a4 = u64 [a3]\n  4313: u64 [sp + 0x18] = a4\n  4316: a4 = u64 [a3 + 0x8]\n  4319: u64 [sp + 0x20] = a4\n  4322: a4 = u64 [a3 + 0x10]\n  4325: u64 [sp + 0x28] = a4\n  4328: a3 = u64 [a3 + 0x18]\n  4331: u64 [sp + 0x30] = a3\n  4334: s1 = u64 [a2]\n  4336: a3 = u64 [a2 + 0x8]\n  4339: u64 [sp] = a3\n  4341: a3 = u64 [a2 + 0x10]\n  4344: u64 [sp + 0x8] = a3\n  4347: a2 = u64 [a2 + 0x18]\n  4350: u64 [sp + 0x10] = a2\n  4353: jump [t0]\n      : @125 (gas: 7)\n  4355: a3 = a1 | a2\n  4358: a3 = a3 | a0\n  4361: a3 = a3 >> 0x20\n  4364: a0 = a0 | a2\n  4367: a0 = a0 << 0x20\n  4370: a0 = a0 | a3\n  4373: jump [t0]\n      : @126 (gas: 2)\n  4375: a3 = a2 & 0x40\n  4378: jump @130 if a3 != 0\n      : @127 (gas: 1)\n  4381: jump @129 if a2 == 0\n      : @128 (gas: 6)\n  4384: i32 a3 = 0x40 - a2\n  4387: a3 = a1 << a3\n  4390: a1 = a1 >> a2\n  4393: a0 = a0 >> a2\n  4396: a0 = a0 | a3\n  4399: ret\n      : @129 (gas: 1)\n  4401: ret\n      : @130 (gas: 4)\n  4403: a0 = a2 + 0xffffffffffffffc0\n  4406: a0 = a1 >> a0\n  4409: a1 = 0\n  4411: ret\n      : @131 (gas: 2)\n  4413: a3 = a2 & 0x40\n  4416: jump @135 if a3 != 0\n      : @132 (gas: 1)\n  4419: jump @134 if a2 == 0\n      : @133 (gas: 6)\n  4422: i32 a3 = 0x40 - a2\n  4425: a3 = a0 >> a3\n  4428: a0 = a0 << a2\n  4431: a1 = a1 << a2\n  4434: a1 = a1 | a3\n  4437: ret\n      : @134 (gas: 1)\n  4439: ret\n      : @135 (gas: 4)\n  4441: a1 = a2 + 0xffffffffffffffc0\n  4444: a1 = a0 << a1\n  4447: a0 = 0\n  4449: ret\n","bytecode":{"linkReferences":{},"object":"50564d00008414000000000000010700c13000c00080047106000000000e0000001c0000002a000000350000004700000063616c6c5f646174615f636f707963616c6c5f646174615f6c6f616463616c6c5f646174615f73697a657365616c5f72657475726e7365745f696d6d757461626c655f6461746176616c75655f7472616e7366657272656405110290c80463616c6c90cf066465706c6f790693e42802916315005d017a027f02a5020f031b035003f60432057905a605b005bd0586069e06c1062c0742076507f107ba0ad40af70a370b770b8e0ba60bea0b520e6e0eae0e880fa00ff40f8b10ac10b610cf10d71039080800025108ff02330730000383770a0428f2027c78017c797c7a027c7b03978808d4980897aa1097bb18d4ba0ad4a8087c79057c7a047c7b067c7c07979908d4a90997bb1097cc18d4cb0bd4b909979920d489027c79097c7a087c7b0a7c7c0b979908d4a90997bb1097cc18d4cb0bd4b9097c7a0d7c7b0c7c7c0e7c780f97aa08d4ba0a97cc10978818d4c808d4a808978820d498037c78117c7a107c7b127c7c13978808d4a80897bb1097cc18d4cb0bd4b8087c7a157c7b147c7c167c791797aa08d4ba0a97cc10979918d4c909d4a909979920d4890a7c78197c79187c7b1a7c7c1b978808d4980897bb1097cc18d4cb0bd4b8087c791d7c7b1c7c7c1e7c771f979908d4b90997cc10977718d4c707d49707977720d487076f776fa86f396f2a7b5a187b59107b58087b57821008821595111032009511d87b10207b15187b161082897b19088289087b19828510828618330820501004d3006f686f59821a6faa821b086fbb787b18787a10787908787898bc38787c1f98bc30787c1e98bc28787c1d98bc20787c1c98bc18787c1b98bc10787c1a98bb08787b1998ab38787b1798ab30787b1698ab28787b1598ab20787b1498ab18787b1398ab10787b1298aa08787a11989a38787a0f989a30787a0e989a28787a0d989a20787a0c989a18787a0b989a10787a0a98990878790998893878790798893078790698892878790598892078790498891878790398891078790298880878780182102082151882161095112832008b7910520931c8780883881f8488e05638000001253309040002390a040002ae8a093d080400020133081000028377c887073200009511f07b10087b158475010a02013d0700000251050750100609501008a1009511a07b10587b15509515608411e049111849111049018000330740641849110850100a99fe4911384911304911284911208317200a0501821730821838821928821a20d49808d4a707d4870751071633081000028388330701330933000e0a03283b390804000256187f0c2003040002800001330710000283778000330833090a28fffc33078000330850100c21ff83783307330933000e0a0301951160fe7b1098017b1590017b1688019515a0018411e04921f8004921f0004921e00080003307409518e0004921e800501010eefd330600000239070000025317040f028317000133080a010180171c019777201408000000003ceedc57ab87f00149213801492130014921280149212001831720010a0501821730018218380182192801821a2001d49808d4a707d487075207aa013907000002541723a1017b1638831740013308040a0101821c5801821a5001821b4801d4ca0788b801947851089601821640018217388077956823d86809c89b027b1b18d8b20bda990bc8ab0b7b1a20d8ab097b1c28c8c909d4b909d878079427949751074d01836804831760010a01018217780182197001821468017b1730d49707884a01947a510a1e0182106001956c24d86c07821818c87806d8860ada770a821720c87a0ad87a02821728c827077b1018c8c000d8c008c8460bc88b0bd36b02d86b03da28037b1928c89a08d8a8098212307b1720c82707c897078219388099c88303d88308c88707d8090888b901858801dbb908887901883b01db790bd47307db7b085108ba008217187b1780007b1ca0007b1488007b16a8008217287b1790007b1ab0007b1298009517c0009518a00095198000821a207b1ab80050101274028217d8007b17388217d0007b17308217c8007b17288217c0007b17209517603308403300149511f07b10087b1564896475330820649733000228fcfc821778821870821968821660d49707d48609d47909989920d48707977720d49707510731003307330833001628cdfc330833001628c5fc33081000028388280c3307501016b7fc83780133070133090a03018217207b17408217287b17488217307b17509518408217387b1758646750101898fb330820646750101a80fc8378330920330733001c0a03019511907b10687b15607b16589515708411f082a2829b7b1b0882ac08829b0882a41082901082a618829918d3bc03d8bc0b821a08d8a20adb3b0ad3960b7b1608d89609d80406dbb906d30409d4b909db960a510a578289828318828b08828810c82909d82906c8cb0bc86b0bd3cb0ad8cb0cdaa60cc84808c88c0cd88c0ad84808821608c86303c83808c8a8087b797b7b087b7c107b78189551908210688215608216589511703200491140491138491130140700000000717b484e9518307b1748330750101eb8fa49112849112049111032330704951810491118501020a0fa390804000256183f0b20030400024001330810000283883307013309243300220a03018289828218828a08828c10959b0188b901c8a909d49b0a88aa01c8ca0ad8ca0cc82c0cd4c902d4ab08d428085108107b7b7b79087b7a107b7c1832009511b07b10487b15409515508411f0491130491128491120140700000000717b484e9518207b1738330750102412fa4911184911104901113307046418491108501026fcf9390804000256183f0b20030400024001330810000283883307013309243300280a0301951120fc951a00037ba0d8007ba5d0007ba6c8009515e0038411e07b1710829b18829c10829a8296088eb78ec9dbb7098e677b1a4088aa0485aa017b1638db670a7b1b287b1c20d4bc0cdbc90a330b14510a58087b1c18018287828618828908828a107b17509578018887017b1948c89707d47809889901c8a9097b1a58d8a90ac86a0ad4a70750122a1709520770088388831700030a0101821858821750d487078219487b1630d46909d497079877207b193001d49808978820d4870752073e08821718037b1728018216508368831720037b1838010a0101821758821830d4870764691408feffffff00000000d889088219489498947851080308821738037b17200182183801838802831740030a01011406fdffffff00000000821750d36707821858d4870782183001d487075107cc07821758039877389777287b1730018217200198773897773882182801988838978830d4870682183801838803831760030a01018217780398773897772082183001d48707d46707140800000000b3a75e09aa87e205140800000000bb9c05a9ab873d0782174088774482183894878218180194875207fd064921d80033033304330b3300330c3306330224018e07882844858801db07088ec78e69da6709d46c07da78095209fd06821ad80098a738973808d487077b178000983738974808d4780998473897b808d487077b1778d44a07d4b308d4870797a8087b1990007b1888007b12707b10687b1c60510770047b1618887701d4980882108000821278d42009d49808888801d487077b1738016848958840643768b3dab80368a895884068797b17c800da7809959880007b14d0007b1bc000d4b40cdac803d8980b94cb821790006878958840682cda280c8217880068789588406809da08099598800082179000d42706da680cd898079467d37b08d87b06d8c309da89068868019584ff9a6ac97b0bc99b0bc9c308821388007b1a30018ea78e49da47098eb7888a000185aa01dbb70adb690a82193801d4a90964279497821c9000949c640a949a6436949652097b0364828589ff0082103001d40909d44b08d49808510864037b1220019528017b183801888701c8b7077b171801d48707887701c807077b170801d80707c847077b1710019a28ff007b1830019a89800064378218800050102c62067b1728017b18f8008217900082167864688219300150102e6e067b1700018217f800d487077b17f000821820019a897f82178800821880005010304b0682193001889a80007b1af800821bf000dbab08da96087b18200182182801821b0001d4b808daa70882179000da97087b18280182178800821880005010320b0682190801821a1001821c1801d4ac0c82163801d49606d46c0c8219f80093987b18000193977b173001510c31028216380195698082179000821878501034a5057b17f8007b18e800821788008218800064695010368e057b17e0007b18f0009a698000821790008218785010389c05821bf000d48b0b6469886880007b18f000821ae800da8a0b821a8000da6a0b7b1be8008216e000d476068217f800da870682178800da97068217900082187850103a320564648213e800647233008217f000937893728219d800889701821ac800c97a077b17b000d4a907887701821ad000c97a0b7b1ba800d87a07821ac000c97a0a7b1aa0007b19d8009599ff7b199800017b10f8004921b800984b3f973a01d4ba0a974b018210200198093fd4b9097b19e8008217b000d3a706d8a70b82179800d89704db6b0497880198293fd498087b18f00098393f972701d49703970701821b280198b93fd4970797b90182160001986b3fd4b909976b018216300198603fd40b0b9766018218f800d486067b16300186bb7b1b000186997b19280186777b1720018219a800c93907d84707d83909821ba0008214f000c94b0bc99b0bc97b0b99bb3f8217d800d27b087b18e000821cc800d2bc0cd3ca07d8ca068212e800d88200da70068219d000d2b909c99308c968077b17f800d86807d893098216c000d2b606c96408c99808c97808c9ca0ac90a038217e000c97204821c380182161801d46c07887701821a0801d87a09c97a0788ca01c9a606821a1001c99a0a95ccff7b1618017b1a1001d4a6098212f8007b1c3801d47c0ad4a90984b0017b1708015209aefe280933004921b80001821a280198a73f82182001978801d48707821c000198c83f97aa01d4a80882193001989a3f97cc01979601d460068219b800d49a0ad4ca0ad4890cd497070185680001d4c808d4a707d48707821270821068821c60821618520772027b1240028217407b1760028217507b1780027b1048028217387b1768028217487b1788027b1c5002821720951c00027bc7708217587bc790007bc6588217287bc7789517a0029518800295196002951a4002821b307bcb980050103c70f7951b000282b7b80082b9b00082baa80082b8a000d4a70750123e9a025207f3018388831780030a017c179f0382188800d487077b17d800951a00027ba6188217607ba7108217687ba70895172002951800028219707ba950104018f895170002827638827c308270288272208213800082149000821b78285cfa821740887744821838948782181801948782123052072a013306330c330b3303248317a0037b172001140700000000000000ff7b171801018e67883844858801db67088ec78eb9dab709d4bc07da7809821848821a5852093a017b1328017b1380018217407b17a0018217507b17c0017b1630017b1688018217387b17a8017b18c80164c67b1c90018217207b17b0017b1ad0017b1b38017b1b98018217287b17b8019517e0019518c0019519a001951a80017b12d8015010423af68217f8018219f001821ae8018218e001d4a70750124468015207c1008388821720010a01018217b8038218b00382191801d37909d498089877388877ff009387520742821728017b174001821730017b1748017b1650019517600195184001821938017b195801501046d2f6821b7801821c7001821668018213600182123028fdfe330b018218107b8b491808491810491818955120fc951700038270d8008275d0008276c8009511e0033200330b1428d58219d8008e9840420f8e39da38098e488ebadab80ad4b408db8a09330b1e939b28b3330b2828ae00951900024929f0004929e8004929e000140700000000717b484e9518e0027b97f8003307501048b3f0951900024929d8004929d0004929c000113307049518c0024929c80050104a92f0330824330750104c7af183783307013309240a03330733004e289bf1330750104e96f13307015010508ef182ab7b1b1882ab087b1b2082ab107b1b2882aa187b1a308296829a087b1a829a107b1a088299187b19103202d4980ad47a0a98aa20d49707977720d4a7073202849a40520a195109148d9a40cfa80ad09808d09707d4a707320032009597c0d0780733083200849a40520a195109148d9a40d0a70acf9707cf9808d4a808320032009598c0cf87083307320021422525499224499224499224499224499224499224499224499224499224499224495295a49492a4a424a12a2529499224499224499224499224499224499224499224494a920421240ca549694884244912292149d2244992504a85080c5113852a8d8888440489082184a891002222221a1191244248a411911491922449922415894644922292244992244992244992942449922491888844444424422412892449aa9424499224c94a4a42159a9a244992420aa53449924a92244992244992942449922449929424495292009242124942886028494b9224499224252949922480a49024258408869234222222494aa524499224a2244992244912a26892244924898814d1240590544444a2012449242289482249241a492401440091a428a2aab224952422492449922489481249224912a5528a444492a2942825224949929424a2522489545415452489482491249288882244448a109188448488882422924844848848245114118984888842444442a48848242291482414151589441289442212239224928824922491249124924492481445114922922412912492481249244912894822492289484492888a91482249244924c948922411894424129148224944442244444442144524224912914224494492a4285125228058924a924444221191882211118988880811110951342292448988888888101191342589888828452895249546440410518888908890424925858492244929494a92a42449924a2a4992a4920200","opcodes":""},"methodIdentifiers":{"assessRisk(bytes)":"57dcee3c"}},"hash":"d0b1bbef37899f560b8e95f3a2629eba122b80939d90442b2650aebadc7fcdfd","factoryDependencies":{}}}}