{"contracts/RiskEngine.sol":{"RiskEngine":{"abi":[{"inputs":[{"internalType":"bytes","name":"txCalldata","type":"bytes"}],"name":"assessRisk","outputs":[{"internalType":"uint8","name":"","type":"uint8"}],"stateMutability":"pure","type":"function"}],"evm":{"bytecode":{"linkReferences":{},"object":"608060405234801561001057600080fd5b50610688806100206000396000f3fe608060405234801561001057600080fd5b506004361061002b5760003560e01c806357dcee3c14610030575b600080fd5b61004a60048036038101906100459190610460565b610060565b60405161005791906104c9565b60405180910390f35b6000600483839050101561007757601490506103eb565b600060188484600381811061008f5761008e6104e4565b5b9050013560f81c60f81b7effffffffffffffffffffffffffffffffffffffffffffffffffffffffffffff19167bffffffffffffffffffffffffffffffffffffffffffffffffffffffff1916901c6010858560028181106100f2576100f16104e4565b5b9050013560f81c60f81b7effffffffffffffffffffffffffffffffffffffffffffffffffffffffffffff19167bffffffffffffffffffffffffffffffffffffffffffffffffffffffff1916901c600886866001818110610155576101546104e4565b5b9050013560f81c60f81b7effffffffffffffffffffffffffffffffffffffffffffffffffffffffffffff19167bffffffffffffffffffffffffffffffffffffffffffffffffffffffff1916901c868660008181106101b6576101b56104e4565b5b9050013560f81c60f81b7effffffffffffffffffffffffffffffffffffffffffffffffffffffffffffff19161717179050600063095ea7b360e01b9050600063a9059cbb60e01b90506000827bffffffffffffffffffffffffffffffffffffffffffffffffffffffff1916847bffffffffffffffffffffffffffffffffffffffffffffffffffffffff1916036102ea57604487879050106102e5576000600190506000602490505b60448110156102cc5760ff60f81b89898381811061027f5761027e6104e4565b5b9050013560f81c60f81b7effffffffffffffffffffffffffffffffffffffffffffffffffffffffffffff1916146102b957600091506102cc565b80806102c49061054c565b91505061025e565b5080156102e3576028826102e091906105a4565b91505b505b6103cf565b817bffffffffffffffffffffffffffffffffffffffffffffffffffffffff1916847bffffffffffffffffffffffffffffffffffffffffffffffffffffffff1916036103be57604487879050106103b957600080602490505b604481101561039b5788888281811061035e5761035d6104e4565b5b9050013560f81c60f81b60f81c60ff166101008361037c91906105dc565b610386919061061e565b915080806103939061054c565b915050610342565b50620f42408111156103b757601e826103b491906105a4565b91505b505b6103ce565b6014816103cb91906105a4565b90505b5b60648163ffffffff1611156103e357606490505b809450505050505b92915050565b600080fd5b600080fd5b600080fd5b600080fd5b600080fd5b60008083601f8401126104205761041f6103fb565b5b8235905067ffffffffffffffff81111561043d5761043c610400565b5b60208301915083600182028301111561045957610458610405565b5b9250929050565b60008060208385031215610477576104766103f1565b5b600083013567ffffffffffffffff811115610495576104946103f6565b5b6104a18582860161040a565b92509250509250929050565b600060ff82169050919050565b6104c3816104ad565b82525050565b60006020820190506104de60008301846104ba565b92915050565b7f4e487b7100000000000000000000000000000000000000000000000000000000600052603260045260246000fd5b7f4e487b7100000000000000000000000000000000000000000000000000000000600052601160045260246000fd5b6000819050919050565b600061055782610542565b91507fffffffffffffffffffffffffffffffffffffffffffffffffffffffffffffffff820361058957610588610513565b5b600182019050919050565b600063ffffffff82169050919050565b60006105af82610594565b91506105ba83610594565b9250828201905063ffffffff8111156105d6576105d5610513565b5b92915050565b60006105e782610542565b91506105f283610542565b925082820261060081610542565b9150828204841483151761061757610616610513565b5b5092915050565b600061062982610542565b915061063483610542565b925082820190508082111561064c5761064b610513565b5b9291505056fea2646970667358221220b747d1a636ff2e36652fb51066447110ba3d345ae1d44c808e2e261d833578b964736f6c63430008140033","opcodes":"PUSH1 0x80 PUSH1 0x40 MSTORE CALLVALUE DUP1 ISZERO PUSH2 0x10 JUMPI PUSH1 0x0 DUP1 REVERT JUMPDEST POP PUSH2 0x688 DUP1 PUSH2 0x20 PUSH1 0x0 CODECOPY PUSH1 0x0 RETURN INVALID PUSH1 0x80 PUSH1 0x40 MSTORE CALLVALUE DUP1 ISZERO PUSH2 0x10 JUMPI PUSH1 0x0 DUP1 REVERT JUMPDEST POP PUSH1 0x4 CALLDATASIZE LT PUSH2 0x2B JUMPI PUSH1 0x0 CALLDATALOAD PUSH1 0xE0 SHR DUP1 PUSH4 0x57DCEE3C EQ PUSH2 0x30 JUMPI JUMPDEST PUSH1 0x0 DUP1 REVERT JUMPDEST PUSH2 0x4A PUSH1 0x4 DUP1 CALLDATASIZE SUB DUP2 ADD SWAP1 PUSH2 0x45 SWAP2 SWAP1 PUSH2 0x460 JUMP JUMPDEST PUSH2 0x60 JUMP JUMPDEST PUSH1 0x40 MLOAD PUSH2 0x57 SWAP2 SWAP1 PUSH2 0x4C9 JUMP JUMPDEST PUSH1 0x40 MLOAD DUP1 SWAP2 SUB SWAP1 RETURN JUMPDEST PUSH1 0x0 PUSH1 0x4 DUP4 DUP4 SWAP1 POP LT ISZERO PUSH2 0x77 JUMPI PUSH1 0x14 SWAP1 POP PUSH2 0x3EB JUMP JUMPDEST PUSH1 0x0 PUSH1 0x18 DUP5 DUP5 PUSH1 0x3 DUP2 DUP2 LT PUSH2 0x8F JUMPI PUSH2 0x8E PUSH2 0x4E4 JUMP JUMPDEST JUMPDEST SWAP1 POP ADD CALLDATALOAD PUSH1 0xF8 SHR PUSH1 0xF8 SHL PUSH31 0xFFFFFFFFFFFFFFFFFFFFFFFFFFFFFFFFFFFFFFFFFFFFFFFFFFFFFFFFFFFFFF NOT AND PUSH28 0xFFFFFFFFFFFFFFFFFFFFFFFFFFFFFFFFFFFFFFFFFFFFFFFFFFFFFFFF NOT AND SWAP1 SHR PUSH1 0x10 DUP6 DUP6 PUSH1 0x2 DUP2 DUP2 LT PUSH2 0xF2 JUMPI PUSH2 0xF1 PUSH2 0x4E4 JUMP JUMPDEST JUMPDEST SWAP1 POP ADD CALLDATALOAD PUSH1 0xF8 SHR PUSH1 0xF8 SHL PUSH31 0xFFFFFFFFFFFFFFFFFFFFFFFFFFFFFFFFFFFFFFFFFFFFFFFFFFFFFFFFFFFFFF NOT AND PUSH28 0xFFFFFFFFFFFFFFFFFFFFFFFFFFFFFFFFFFFFFFFFFFFFFFFFFFFFFFFF NOT AND SWAP1 SHR PUSH1 0x8 DUP7 DUP7 PUSH1 0x1 DUP2 DUP2 LT PUSH2 0x155 JUMPI PUSH2 0x154 PUSH2 0x4E4 JUMP JUMPDEST JUMPDEST SWAP1 POP ADD CALLDATALOAD PUSH1 0xF8 SHR PUSH1 0xF8 SHL PUSH31 0xFFFFFFFFFFFFFFFFFFFFFFFFFFFFFFFFFFFFFFFFFFFFFFFFFFFFFFFFFFFFFF NOT AND PUSH28 0xFFFFFFFFFFFFFFFFFFFFFFFFFFFFFFFFFFFFFFFFFFFFFFFFFFFFFFFF NOT AND SWAP1 SHR DUP7 DUP7 PUSH1 0x0 DUP2 DUP2 LT PUSH2 0x1B6 JUMPI PUSH2 0x1B5 PUSH2 0x4E4 JUMP JUMPDEST JUMPDEST SWAP1 POP ADD CALLDATALOAD PUSH1 0xF8 SHR PUSH1 0xF8 SHL PUSH31 0xFFFFFFFFFFFFFFFFFFFFFFFFFFFFFFFFFFFFFFFFFFFFFFFFFFFFFFFFFFFFFF NOT AND OR OR OR SWAP1 POP PUSH1 0x0 PUSH4 0x95EA7B3 PUSH1 0xE0 SHL SWAP1 POP PUSH1 0x0 PUSH4 0xA9059CBB PUSH1 0xE0 SHL SWAP1 POP PUSH1 0x0 DUP3 PUSH28 0xFFFFFFFFFFFFFFFFFFFFFFFFFFFFFFFFFFFFFFFFFFFFFFFFFFFFFFFF NOT AND DUP5 PUSH28 0xFFFFFFFFFFFFFFFFFFFFFFFFFFFFFFFFFFFFFFFFFFFFFFFFFFFFFFFF NOT AND SUB PUSH2 0x2EA JUMPI PUSH1 0x44 DUP8 DUP8 SWAP1 POP LT PUSH2 0x2E5 JUMPI PUSH1 0x0 PUSH1 0x1 SWAP1 POP PUSH1 0x0 PUSH1 0x24 SWAP1 POP JUMPDEST PUSH1 0x44 DUP2 LT ISZERO PUSH2 0x2CC JUMPI PUSH1 0xFF PUSH1 0xF8 SHL DUP10 DUP10 DUP4 DUP2 DUP2 LT PUSH2 0x27F JUMPI PUSH2 0x27E PUSH2 0x4E4 JUMP JUMPDEST JUMPDEST SWAP1 POP ADD CALLDATALOAD PUSH1 0xF8 SHR PUSH1 0xF8 SHL PUSH31 0xFFFFFFFFFFFFFFFFFFFFFFFFFFFFFFFFFFFFFFFFFFFFFFFFFFFFFFFFFFFFFF NOT AND EQ PUSH2 0x2B9 JUMPI PUSH1 0x0 SWAP2 POP PUSH2 0x2CC JUMP JUMPDEST DUP1 DUP1 PUSH2 0x2C4 SWAP1 PUSH2 0x54C JUMP JUMPDEST SWAP2 POP POP PUSH2 0x25E JUMP JUMPDEST POP DUP1 ISZERO PUSH2 0x2E3 JUMPI PUSH1 0x28 DUP3 PUSH2 0x2E0 SWAP2 SWAP1 PUSH2 0x5A4 JUMP JUMPDEST SWAP2 POP JUMPDEST POP JUMPDEST PUSH2 0x3CF JUMP JUMPDEST DUP2 PUSH28 0xFFFFFFFFFFFFFFFFFFFFFFFFFFFFFFFFFFFFFFFFFFFFFFFFFFFFFFFF NOT AND DUP5 PUSH28 0xFFFFFFFFFFFFFFFFFFFFFFFFFFFFFFFFFFFFFFFFFFFFFFFFFFFFFFFF NOT AND SUB PUSH2 0x3BE JUMPI PUSH1 0x44 DUP8 DUP8 SWAP1 POP LT PUSH2 0x3B9 JUMPI PUSH1 0x0 DUP1 PUSH1 0x24 SWAP1 POP JUMPDEST PUSH1 0x44 DUP2 LT ISZERO PUSH2 0x39B JUMPI DUP9 DUP9 DUP3 DUP2 DUP2 LT PUSH2 0x35E JUMPI PUSH2 0x35D PUSH2 0x4E4 JUMP JUMPDEST JUMPDEST SWAP1 POP ADD CALLDATALOAD PUSH1 0xF8 SHR PUSH1 0xF8 SHL PUSH1 0xF8 SHR PUSH1 0xFF AND PUSH2 0x100 DUP4 PUSH2 0x37C SWAP2 SWAP1 PUSH2 0x5DC JUMP JUMPDEST PUSH2 0x386 SWAP2 SWAP1 PUSH2 0x61E JUMP JUMPDEST SWAP2 POP DUP1 DUP1 PUSH2 0x393 SWAP1 PUSH2 0x54C JUMP JUMPDEST SWAP2 POP POP PUSH2 0x342 JUMP JUMPDEST POP PUSH3 0xF4240 DUP2 GT ISZERO PUSH2 0x3B7 JUMPI PUSH1 0x1E DUP3 PUSH2 0x3B4 SWAP2 SWAP1 PUSH2 0x5A4 JUMP JUMPDEST SWAP2 POP JUMPDEST POP JUMPDEST PUSH2 0x3CE JUMP JUMPDEST PUSH1 0x14 DUP2 PUSH2 0x3CB SWAP2 SWAP1 PUSH2 0x5A4 JUMP JUMPDEST SWAP1 POP JUMPDEST JUMPDEST PUSH1 0x64 DUP2 PUSH4 0xFFFFFFFF AND GT ISZERO PUSH2 0x3E3 JUMPI PUSH1 0x64 SWAP1 POP JUMPDEST DUP1 SWAP5 POP POP POP POP POP JUMPDEST SWAP3 SWAP2 POP POP JUMP JUMPDEST PUSH1 0x0 DUP1 REVERT JUMPDEST PUSH1 0x0 DUP1 REVERT JUMPDEST PUSH1 0x0 DUP1 REVERT JUMPDEST PUSH1 0x0 DUP1 REVERT JUMPDEST PUSH1 0x0 DUP1 REVERT JUMPDEST PUSH1 0x0 DUP1 DUP4 PUSH1 0x1F DUP5 ADD SLT PUSH2 0x420 JUMPI PUSH2 0x41F PUSH2 0x3FB JUMP JUMPDEST JUMPDEST DUP3 CALLDATALOAD SWAP1 POP PUSH8 0xFFFFFFFFFFFFFFFF DUP2 GT ISZERO PUSH2 0x43D JUMPI PUSH2 0x43C PUSH2 0x400 JUMP JUMPDEST JUMPDEST PUSH1 0x20 DUP4 ADD SWAP2 POP DUP4 PUSH1 0x1 DUP3 MUL DUP4 ADD GT ISZERO PUSH2 0x459 JUMPI PUSH2 0x458 PUSH2 0x405 JUMP JUMPDEST JUMPDEST SWAP3 POP SWAP3 SWAP1 POP JUMP JUMPDEST PUSH1 0x0 DUP1 PUSH1 0x20 DUP4 DUP6 SUB SLT ISZERO PUSH2 0x477 JUMPI PUSH2 0x476 PUSH2 0x3F1 JUMP JUMPDEST JUMPDEST PUSH1 0x0 DUP4 ADD CALLDATALOAD PUSH8 0xFFFFFFFFFFFFFFFF DUP2 GT ISZERO PUSH2 0x495 JUMPI PUSH2 0x494 PUSH2 0x3F6 JUMP JUMPDEST JUMPDEST PUSH2 0x4A1 DUP6 DUP3 DUP7 ADD PUSH2 0x40A JUMP JUMPDEST SWAP3 POP SWAP3 POP POP SWAP3 POP SWAP3 SWAP1 POP JUMP JUMPDEST PUSH1 0x0 PUSH1 0xFF DUP3 AND SWAP1 POP SWAP2 SWAP1 POP JUMP JUMPDEST PUSH2 0x4C3 DUP2 PUSH2 0x4AD JUMP JUMPDEST DUP3 MSTORE POP POP JUMP JUMPDEST PUSH1 0x0 PUSH1 0x20 DUP3 ADD SWAP1 POP PUSH2 0x4DE PUSH1 0x0 DUP4 ADD DUP5 PUSH2 0x4BA JUMP JUMPDEST SWAP3 SWAP2 POP POP JUMP JUMPDEST PUSH32 0x4E487B7100000000000000000000000000000000000000000000000000000000 PUSH1 0x0 MSTORE PUSH1 0x32 PUSH1 0x4 MSTORE PUSH1 0x24 PUSH1 0x0 REVERT JUMPDEST PUSH32 0x4E487B7100000000000000000000000000000000000000000000000000000000 PUSH1 0x0 MSTORE PUSH1 0x11 PUSH1 0x4 MSTORE PUSH1 0x24 PUSH1 0x0 REVERT JUMPDEST PUSH1 0x0 DUP2 SWAP1 POP SWAP2 SWAP1 POP JUMP JUMPDEST PUSH1 0x0 PUSH2 0x557 DUP3 PUSH2 0x542 JUMP JUMPDEST SWAP2 POP PUSH32 0xFFFFFFFFFFFFFFFFFFFFFFFFFFFFFFFFFFFFFFFFFFFFFFFFFFFFFFFFFFFFFFFF DUP3 SUB PUSH2 0x589 JUMPI PUSH2 0x588 PUSH2 0x513 JUMP JUMPDEST JUMPDEST PUSH1 0x1 DUP3 ADD SWAP1 POP SWAP2 SWAP1 POP JUMP JUMPDEST PUSH1 0x0 PUSH4 0xFFFFFFFF DUP3 AND SWAP1 POP SWAP2 SWAP1 POP JUMP JUMPDEST PUSH1 0x0 PUSH2 0x5AF DUP3 PUSH2 0x594 JUMP JUMPDEST SWAP2 POP PUSH2 0x5BA DUP4 PUSH2 0x594 JUMP JUMPDEST SWAP3 POP DUP3 DUP3 ADD SWAP1 POP PUSH4 0xFFFFFFFF DUP2 GT ISZERO PUSH2 0x5D6 JUMPI PUSH2 0x5D5 PUSH2 0x513 JUMP JUMPDEST JUMPDEST SWAP3 SWAP2 POP POP JUMP JUMPDEST PUSH1 0x0 PUSH2 0x5E7 DUP3 PUSH2 0x542 JUMP JUMPDEST SWAP2 POP PUSH2 0x5F2 DUP4 PUSH2 0x542 JUMP JUMPDEST SWAP3 POP DUP3 DUP3 MUL PUSH2 0x600 DUP2 PUSH2 0x542 JUMP JUMPDEST SWAP2 POP DUP3 DUP3 DIV DUP5 EQ DUP4 ISZERO OR PUSH2 0x617 JUMPI PUSH2 0x616 PUSH2 0x513 JUMP JUMPDEST JUMPDEST POP SWAP3 SWAP2 POP POP JUMP JUMPDEST PUSH1 0x0 PUSH2 0x629 DUP3 PUSH2 0x542 JUMP JUMPDEST SWAP2 POP PUSH2 0x634 DUP4 PUSH2 0x542 JUMP JUMPDEST SWAP3 POP DUP3 DUP3 ADD SWAP1 POP DUP1 DUP3 GT ISZERO PUSH2 0x64C JUMPI PUSH2 0x64B PUSH2 0x513 JUMP JUMPDEST JUMPDEST SWAP3 SWAP2 POP POP JUMP INVALID LOG2 PUSH5 0x6970667358 0x22 SLT KECCAK256 0xB7 SELFBALANCE 0xD1 0xA6 CALLDATASIZE SELFDESTRUCT 0x2E CALLDATASIZE PUSH6 0x2FB510664471 LT 0xBA RETURNDATASIZE CALLVALUE GAS 0xE1 0xD4 0x4C DUP1 DUP15 0x2E 0x26 SAR DUP4 CALLDATALOAD PUSH25 0xB964736F6C6343000814003300000000000000000000000000 "},"methodIdentifiers":{"assessRisk(bytes)":"57dcee3c"}}}}}