{
  "_format": "hh-sol-artifact-1",
  "contractName": "GuardianVault",
  "sourceName": "contracts/GuardianVault.sol",
  "abi": [
    {
      "inputs": [],
      "stateMutability": "nonpayable",
      "type": "constructor"
    },
    {
      "inputs": [
        {
          "internalType": "address",
          "name": "owner",
          "type": "address"
        }
      ],
      "name": "OwnableInvalidOwner",
      "type": "error"
    },
    {
      "inputs": [
        {
          "internalType": "address",
          "name": "account",
          "type": "address"
        }
      ],
      "name": "OwnableUnauthorizedAccount",
      "type": "error"
    },
    {
      "inputs": [],
      "name": "ReentrancyGuardReentrantCall",
      "type": "error"
    },
    {
      "anonymous": false,
      "inputs": [
        {
          "indexed": true,
          "internalType": "address",
          "name": "user",
          "type": "address"
        },
        {
          "indexed": false,
          "internalType": "uint256",
          "name": "amount",
          "type": "uint256"
        }
      ],
      "name": "Deposit",
      "type": "event"
    },
    {
      "anonymous": false,
      "inputs": [
        {
          "indexed": true,
          "internalType": "address",
          "name": "previousOwner",
          "type": "address"
        },
        {
          "indexed": true,
          "internalType": "address",
          "name": "newOwner",
          "type": "address"
        }
      ],
      "name": "OwnershipTransferred",
      "type": "event"
    },
    {
      "anonymous": false,
      "inputs": [
        {
          "indexed": true,
          "internalType": "address",
          "name": "user",
          "type": "address"
        },
        {
          "indexed": false,
          "internalType": "uint256",
          "name": "amount",
          "type": "uint256"
        }
      ],
      "name": "SecureTransfer",
      "type": "event"
    },
    {
      "anonymous": false,
      "inputs": [
        {
          "indexed": true,
          "internalType": "address",
          "name": "user",
          "type": "address"
        },
        {
          "indexed": false,
          "internalType": "uint256",
          "name": "amount",
          "type": "uint256"
        }
      ],
      "name": "Withdraw",
      "type": "event"
    },
    {
      "inputs": [
        {
          "internalType": "address",
          "name": "",
          "type": "address"
        }
      ],
      "name": "balances",
      "outputs": [
        {
          "internalType": "uint256",
          "name": "",
          "type": "uint256"
        }
      ],
      "stateMutability": "view",
      "type": "function"
    },
    {
      "inputs": [],
      "name": "deposit",
      "outputs": [],
      "stateMutability": "payable",
      "type": "function"
    },
    {
      "inputs": [],
      "name": "owner",
      "outputs": [
        {
          "internalType": "address",
          "name": "",
          "type": "address"
        }
      ],
      "stateMutability": "view",
      "type": "function"
    },
    {
      "inputs": [],
      "name": "renounceOwnership",
      "outputs": [],
      "stateMutability": "nonpayable",
      "type": "function"
    },
    {
      "inputs": [
        {
          "internalType": "address",
          "name": "user",
          "type": "address"
        },
        {
          "internalType": "uint256",
          "name": "amount",
          "type": "uint256"
        }
      ],
      "name": "secureTransfer",
      "outputs": [],
      "stateMutability": "nonpayable",
      "type": "function"
    },
    {
      "inputs": [
        {
          "internalType": "address",
          "name": "newOwner",
          "type": "address"
        }
      ],
      "name": "transferOwnership",
      "outputs": [],
      "stateMutability": "nonpayable",
      "type": "function"
    },
    {
      "inputs": [
        {
          "internalType": "uint256",
          "name": "amount",
          "type": "uint256"
        }
      ],
      "name": "withdraw",
      "outputs": [],
      "stateMutability": "nonpayable",
      "type": "function"
    }
  ],
  "bytecode": "0x608060405234801561001057600080fd5b5033600073ffffffffffffffffffffffffffffffffffffffff168173ffffffffffffffffffffffffffffffffffffffff16036100845760006040517f1e4fbdf700000000000000000000000000000000000000000000000000000000815260040161007b91906101f8565b60405180910390fd5b610093816100be60201b60201c565b5060016100b26100a761018260201b60201c565b6101ad60201b60201c565b60000181905550610213565b60008060009054906101000a900473ffffffffffffffffffffffffffffffffffffffff169050816000806101000a81548173ffffffffffffffffffffffffffffffffffffffff021916908373ffffffffffffffffffffffffffffffffffffffff1602179055508173ffffffffffffffffffffffffffffffffffffffff168173ffffffffffffffffffffffffffffffffffffffff167f8be0079c531659141344cd1fd0a4f28419497f9722a3daafe3b4186f6b6457e060405160405180910390a35050565b60007f9b779b17422d0df92223018b32b4d1fa46e071723d6817e2486d003becc55f0060001b905090565b6000819050919050565b600073ffffffffffffffffffffffffffffffffffffffff82169050919050565b60006101e2826101b7565b9050919050565b6101f2816101d7565b82525050565b600060208201905061020d60008301846101e9565b92915050565b610cb6806102226000396000f3fe6080604052600436106100705760003560e01c80638da5cb5b1161004e5780638da5cb5b146100f2578063d0e30db01461011d578063d8d1f38f14610127578063f2fde38b1461015057610070565b806327e235e3146100755780632e1a7d4d146100b2578063715018a6146100db575b600080fd5b34801561008157600080fd5b5061009c600480360381019061009791906108be565b610179565b6040516100a99190610904565b60405180910390f35b3480156100be57600080fd5b506100d960048036038101906100d4919061094b565b610191565b005b3480156100e757600080fd5b506100f0610377565b005b3480156100fe57600080fd5b5061010761038b565b6040516101149190610987565b60405180910390f35b6101256103b4565b005b34801561013357600080fd5b5061014e600480360381019061014991906109a2565b6104ad565b005b34801561015c57600080fd5b50610177600480360381019061017291906108be565b6105b0565b005b60016020528060005260406000206000915090505481565b610199610636565b80600160003373ffffffffffffffffffffffffffffffffffffffff1673ffffffffffffffffffffffffffffffffffffffff16815260200190815260200160002054101561021b576040517f08c379a000000000000000000000000000000000000000000000000000000000815260040161021290610a3f565b60405180910390fd5b80600160003373ffffffffffffffffffffffffffffffffffffffff1673ffffffffffffffffffffffffffffffffffffffff168152602001908152602001600020600082825461026a9190610a8e565b9250508190555060003373ffffffffffffffffffffffffffffffffffffffff168260405161029790610af3565b60006040518083038185875af1925050503d80600081146102d4576040519150601f19603f3d011682016040523d82523d6000602084013e6102d9565b606091505b505090508061031d576040517f08c379a000000000000000000000000000000000000000000000000000000000815260040161031490610b54565b60405180910390fd5b3373ffffffffffffffffffffffffffffffffffffffff167f884edad9ce6fa2440d8a54cc123490eb96d2768479d49ff9c7366125a9424364836040516103639190610904565b60405180910390a250610374610659565b50565b61037f610674565b61038960006106fb565b565b60008060009054906101000a900473ffffffffffffffffffffffffffffffffffffffff16905090565b6103bc610636565b600034116103ff576040517f08c379a00000000000000000000000000000000000000000000000000000000081526004016103f690610bc0565b60405180910390fd5b34600160003373ffffffffffffffffffffffffffffffffffffffff1673ffffffffffffffffffffffffffffffffffffffff168152602001908152602001600020600082825461044e9190610be0565b925050819055503373ffffffffffffffffffffffffffffffffffffffff167fe1fffcc4923d04b559f4d29a8bfc6cda04eb5b0d3c460751c2402c5c5cc9109c3460405161049b9190610904565b60405180910390a26104ab610659565b565b6104b5610674565b6104bd610636565b80471015610500576040517f08c379a00000000000000000000000000000000000000000000000000000000081526004016104f790610c60565b60405180910390fd5b80600160008473ffffffffffffffffffffffffffffffffffffffff1673ffffffffffffffffffffffffffffffffffffffff168152602001908152602001600020600082825461054f9190610be0565b925050819055508173ffffffffffffffffffffffffffffffffffffffff167fcf592c85c9524ced1f804801a2822194cfa089545c0cb9be1964d74a0ec566de8260405161059c9190610904565b60405180910390a26105ac610659565b5050565b6105b8610674565b600073ffffffffffffffffffffffffffffffffffffffff168173ffffffffffffffffffffffffffffffffffffffff160361062a5760006040517f1e4fbdf70000000000000000000000000000000000000000000000000000000081526004016106219190610987565b60405180910390fd5b610633816106fb565b50565b61063e6107bf565b600261065061064b610800565b61082b565b60000181905550565b600161066b610666610800565b61082b565b60000181905550565b61067c610835565b73ffffffffffffffffffffffffffffffffffffffff1661069a61038b565b73ffffffffffffffffffffffffffffffffffffffff16146106f9576106bd610835565b6040517f118cdaa70000000000000000000000000000000000000000000000000000000081526004016106f09190610987565b60405180910390fd5b565b60008060009054906101000a900473ffffffffffffffffffffffffffffffffffffffff169050816000806101000a81548173ffffffffffffffffffffffffffffffffffffffff021916908373ffffffffffffffffffffffffffffffffffffffff1602179055508173ffffffffffffffffffffffffffffffffffffffff168173ffffffffffffffffffffffffffffffffffffffff167f8be0079c531659141344cd1fd0a4f28419497f9722a3daafe3b4186f6b6457e060405160405180910390a35050565b6107c761083d565b156107fe576040517f3ee5aeb500000000000000000000000000000000000000000000000000000000815260040160405180910390fd5b565b60007f9b779b17422d0df92223018b32b4d1fa46e071723d6817e2486d003becc55f0060001b905090565b6000819050919050565b600033905090565b6000600261085161084c610800565b61082b565b6000015414905090565b600080fd5b600073ffffffffffffffffffffffffffffffffffffffff82169050919050565b600061088b82610860565b9050919050565b61089b81610880565b81146108a657600080fd5b50565b6000813590506108b881610892565b92915050565b6000602082840312156108d4576108d361085b565b5b60006108e2848285016108a9565b91505092915050565b6000819050919050565b6108fe816108eb565b82525050565b600060208201905061091960008301846108f5565b92915050565b610928816108eb565b811461093357600080fd5b50565b6000813590506109458161091f565b92915050565b6000602082840312156109615761096061085b565b5b600061096f84828501610936565b91505092915050565b61098181610880565b82525050565b600060208201905061099c6000830184610978565b92915050565b600080604083850312156109b9576109b861085b565b5b60006109c7858286016108a9565b92505060206109d885828601610936565b9150509250929050565b600082825260208201905092915050565b7f496e73756666696369656e742062616c616e6365000000000000000000000000600082015250565b6000610a296014836109e2565b9150610a34826109f3565b602082019050919050565b60006020820190508181036000830152610a5881610a1c565b9050919050565b7f4e487b7100000000000000000000000000000000000000000000000000000000600052601160045260246000fd5b6000610a99826108eb565b9150610aa4836108eb565b9250828203905081811115610abc57610abb610a5f565b5b92915050565b600081905092915050565b50565b6000610add600083610ac2565b9150610ae882610acd565b600082019050919050565b6000610afe82610ad0565b9150819050919050565b7f5472616e73666572206661696c65640000000000000000000000000000000000600082015250565b6000610b3e600f836109e2565b9150610b4982610b08565b602082019050919050565b60006020820190508181036000830152610b6d81610b31565b9050919050565b7f4e6f2076616c75652073656e7400000000000000000000000000000000000000600082015250565b6000610baa600d836109e2565b9150610bb582610b74565b602082019050919050565b60006020820190508181036000830152610bd981610b9d565b9050919050565b6000610beb826108eb565b9150610bf6836108eb565b9250828201905080821115610c0e57610c0d610a5f565b5b92915050565b7f5661756c742062616c616e636520746f6f206c6f770000000000000000000000600082015250565b6000610c4a6015836109e2565b9150610c5582610c14565b602082019050919050565b60006020820190508181036000830152610c7981610c3d565b905091905056fea26469706673582212207b896fbd1b2152918cc00d6ec4c3cc5bbb25accc6b1f63710e51b49d49221e8064736f6c63430008140033",
  "linkReferences": {},
  "deployedLinkReferences": {}
}