{
  "_format": "hh-sol-artifact-1",
  "contractName": "DefenseExecutor",
  "sourceName": "contracts/DefenseExecutor.sol",
  "abi": [
    {
      "inputs": [
        {
          "internalType": "address",
          "name": "_guardianVault",
          "type": "address"
        },
        {
          "internalType": "address",
          "name": "_riskRegistry",
          "type": "address"
        }
      ],
      "stateMutability": "nonpayable",
      "type": "constructor"
    },
    {
      "inputs": [],
      "name": "EnforcedPause",
      "type": "error"
    },
    {
      "inputs": [],
      "name": "ExpectedPause",
      "type": "error"
    },
    {
      "anonymous": false,
      "inputs": [
        {
          "indexed": true,
          "internalType": "address",
          "name": "user",
          "type": "address"
        },
        {
          "indexed": false,
          "internalType": "uint8",
          "name": "score",
          "type": "uint8"
        }
      ],
      "name": "DefenseTriggered",
      "type": "event"
    },
    {
      "anonymous": false,
      "inputs": [
        {
          "indexed": false,
          "internalType": "address",
          "name": "account",
          "type": "address"
        }
      ],
      "name": "Paused",
      "type": "event"
    },
    {
      "anonymous": false,
      "inputs": [
        {
          "indexed": true,
          "internalType": "address",
          "name": "user",
          "type": "address"
        },
        {
          "indexed": false,
          "internalType": "uint8",
          "name": "score",
          "type": "uint8"
        }
      ],
      "name": "RiskScoreReceived",
      "type": "event"
    },
    {
      "anonymous": false,
      "inputs": [
        {
          "indexed": false,
          "internalType": "address",
          "name": "account",
          "type": "address"
        }
      ],
      "name": "Unpaused",
      "type": "event"
    },
    {
      "inputs": [],
      "name": "DEFENSE_AMOUNT",
      "outputs": [
        {
          "internalType": "uint256",
          "name": "",
          "type": "uint256"
        }
      ],
      "stateMutability": "view",
      "type": "function"
    },
    {
      "inputs": [
        {
          "internalType": "address",
          "name": "user",
          "type": "address"
        },
        {
          "internalType": "bytes",
          "name": "txCalldata",
          "type": "bytes"
        }
      ],
      "name": "evaluateAndDefend",
      "outputs": [
        {
          "internalType": "uint8",
          "name": "score",
          "type": "uint8"
        }
      ],
      "stateMutability": "nonpayable",
      "type": "function"
    },
    {
      "inputs": [],
      "name": "guardianVault",
      "outputs": [
        {
          "internalType": "contract IGuardianVault",
          "name": "",
          "type": "address"
        }
      ],
      "stateMutability": "view",
      "type": "function"
    },
    {
      "inputs": [],
      "name": "paused",
      "outputs": [
        {
          "internalType": "bool",
          "name": "",
          "type": "bool"
        }
      ],
      "stateMutability": "view",
      "type": "function"
    },
    {
      "inputs": [],
      "name": "pvmRiskEngine",
      "outputs": [
        {
          "internalType": "address",
          "name": "",
          "type": "address"
        }
      ],
      "stateMutability": "view",
      "type": "function"
    },
    {
      "inputs": [],
      "name": "riskRegistry",
      "outputs": [
        {
          "internalType": "contract IRiskRegistry",
          "name": "",
          "type": "address"
        }
      ],
      "stateMutability": "view",
      "type": "function"
    }
  ],
  "bytecode": "0x60806040523480156200001157600080fd5b5060405162000dd938038062000dd9833981810160405281019062000037919062000264565b600073ffffffffffffffffffffffffffffffffffffffff168273ffffffffffffffffffffffffffffffffffffffff1603620000a9576040517f08c379a0000000000000000000000000000000000000000000000000000000008152600401620000a0906200030c565b60405180910390fd5b600073ffffffffffffffffffffffffffffffffffffffff168173ffffffffffffffffffffffffffffffffffffffff16036200011b576040517f08c379a000000000000000000000000000000000000000000000000000000000815260040162000112906200037e565b60405180910390fd5b81600060016101000a81548173ffffffffffffffffffffffffffffffffffffffff021916908373ffffffffffffffffffffffffffffffffffffffff16021790555080600160006101000a81548173ffffffffffffffffffffffffffffffffffffffff021916908373ffffffffffffffffffffffffffffffffffffffff160217905550738ac03522a73ef023cf5a9cec767d7a07736b45d9600260006101000a81548173ffffffffffffffffffffffffffffffffffffffff021916908373ffffffffffffffffffffffffffffffffffffffff1602179055505050620003a0565b600080fd5b600073ffffffffffffffffffffffffffffffffffffffff82169050919050565b60006200022c82620001ff565b9050919050565b6200023e816200021f565b81146200024a57600080fd5b50565b6000815190506200025e8162000233565b92915050565b600080604083850312156200027e576200027d620001fa565b5b60006200028e858286016200024d565b9250506020620002a1858286016200024d565b9150509250929050565b600082825260208201905092915050565b7f496e76616c6964207661756c7400000000000000000000000000000000000000600082015250565b6000620002f4600d83620002ab565b91506200030182620002bc565b602082019050919050565b600060208201905081810360008301526200032781620002e5565b9050919050565b7f496e76616c696420726567697374727900000000000000000000000000000000600082015250565b600062000366601083620002ab565b915062000373826200032e565b602082019050919050565b60006020820190508181036000830152620003998162000357565b9050919050565b610a2980620003b06000396000f3fe608060405234801561001057600080fd5b50600436106100625760003560e01c8063105e6c061461006757806313dfe22c146100855780631c3f5b9e146100b55780635c975abb146100d357806394249270146100f1578063a5e8cb3d1461010f575b600080fd5b61006f61012d565b60405161007c91906104e9565b60405180910390f35b61009f600480360381019061009a91906105d1565b610139565b6040516100ac919061064d565b60405180910390f35b6100bd610448565b6040516100ca91906106c7565b60405180910390f35b6100db61046e565b6040516100e891906106fd565b60405180910390f35b6100f9610484565b6040516101069190610739565b60405180910390f35b6101176104aa565b6040516101249190610763565b60405180910390f35b670de0b6b3a764000081565b600061014361046e565b15610183576040517f08c379a000000000000000000000000000000000000000000000000000000000815260040161017a906107db565b60405180910390fd5b60008383604051602401610198929190610859565b6040516020818303038152906040527f57dcee3c000000000000000000000000000000000000000000000000000000007bffffffffffffffffffffffffffffffffffffffffffffffffffffffff19166020820180517bffffffffffffffffffffffffffffffffffffffffffffffffffffffff83818316178352505050509050600080600260009054906101000a900473ffffffffffffffffffffffffffffffffffffffff1673ffffffffffffffffffffffffffffffffffffffff168360405161026191906108ee565b6000604051808303816000865af19150503d806000811461029e576040519150601f19603f3d011682016040523d82523d6000602084013e6102a3565b606091505b5091509150816102e8576040517f08c379a00000000000000000000000000000000000000000000000000000000081526004016102df90610951565b60405180910390fd5b808060200190518101906102fc919061099d565b93508673ffffffffffffffffffffffffffffffffffffffff167ff7bb687fb190aa5350a004f8cb907d750bed524e198752d0ab3bf048ad0c787485604051610344919061064d565b60405180910390a260468460ff16111561043e57600060019054906101000a900473ffffffffffffffffffffffffffffffffffffffff1673ffffffffffffffffffffffffffffffffffffffff1663d8d1f38f88670de0b6b3a76400006040518363ffffffff1660e01b81526004016103bd9291906109ca565b600060405180830381600087803b1580156103d757600080fd5b505af11580156103eb573d6000803e3d6000fd5b505050508673ffffffffffffffffffffffffffffffffffffffff167fb8ad36c112f4dacb3d9764874de031a9819bbd80270c9a111c9d44d7ecd1045a85604051610435919061064d565b60405180910390a25b5050509392505050565b600160009054906101000a900473ffffffffffffffffffffffffffffffffffffffff1681565b60008060009054906101000a900460ff16905090565b600060019054906101000a900473ffffffffffffffffffffffffffffffffffffffff1681565b600260009054906101000a900473ffffffffffffffffffffffffffffffffffffffff1681565b6000819050919050565b6104e3816104d0565b82525050565b60006020820190506104fe60008301846104da565b92915050565b600080fd5b600080fd5b600073ffffffffffffffffffffffffffffffffffffffff82169050919050565b60006105398261050e565b9050919050565b6105498161052e565b811461055457600080fd5b50565b60008135905061056681610540565b92915050565b600080fd5b600080fd5b600080fd5b60008083601f8401126105915761059061056c565b5b8235905067ffffffffffffffff8111156105ae576105ad610571565b5b6020830191508360018202830111156105ca576105c9610576565b5b9250929050565b6000806000604084860312156105ea576105e9610504565b5b60006105f886828701610557565b935050602084013567ffffffffffffffff81111561061957610618610509565b5b6106258682870161057b565b92509250509250925092565b600060ff82169050919050565b61064781610631565b82525050565b6000602082019050610662600083018461063e565b92915050565b6000819050919050565b600061068d6106886106838461050e565b610668565b61050e565b9050919050565b600061069f82610672565b9050919050565b60006106b182610694565b9050919050565b6106c1816106a6565b82525050565b60006020820190506106dc60008301846106b8565b92915050565b60008115159050919050565b6106f7816106e2565b82525050565b600060208201905061071260008301846106ee565b92915050565b600061072382610694565b9050919050565b61073381610718565b82525050565b600060208201905061074e600083018461072a565b92915050565b61075d8161052e565b82525050565b60006020820190506107786000830184610754565b92915050565b600082825260208201905092915050565b7f446566656e73654578656375746f722069732070617573656400000000000000600082015250565b60006107c560198361077e565b91506107d08261078f565b602082019050919050565b600060208201905081810360008301526107f4816107b8565b9050919050565b600082825260208201905092915050565b82818337600083830152505050565b6000601f19601f8301169050919050565b600061083883856107fb565b935061084583858461080c565b61084e8361081b565b840190509392505050565b6000602082019050818103600083015261087481848661082c565b90509392505050565b600081519050919050565b600081905092915050565b60005b838110156108b1578082015181840152602081019050610896565b60008484015250505050565b60006108c88261087d565b6108d28185610888565b93506108e2818560208601610893565b80840191505092915050565b60006108fa82846108bd565b915081905092915050565b7f50564d207269736b20656e67696e652063616c6c206661696c65640000000000600082015250565b600061093b601b8361077e565b915061094682610905565b602082019050919050565b6000602082019050818103600083015261096a8161092e565b9050919050565b61097a81610631565b811461098557600080fd5b50565b60008151905061099781610971565b92915050565b6000602082840312156109b3576109b2610504565b5b60006109c184828501610988565b91505092915050565b60006040820190506109df6000830185610754565b6109ec60208301846104da565b939250505056fea26469706673582212202927e3e64c8ac5dff1195f6745af24575fa1f2cdb632c561a8855dcedee5e82f64736f6c63430008140033",
  "linkReferences": {},
  "deployedLinkReferences": {}
}