{
  "_format": "hh3-artifact-1",
  "contractName": "RiskRegistry",
  "sourceName": "contracts/RiskRegistry.sol",
  "abi": [
    {
      "inputs": [],
      "stateMutability": "nonpayable",
      "type": "constructor"
    },
    {
      "inputs": [
        {
          "internalType": "address",
          "name": "owner",
          "type": "address"
        }
      ],
      "name": "OwnableInvalidOwner",
      "type": "error"
    },
    {
      "inputs": [
        {
          "internalType": "address",
          "name": "account",
          "type": "address"
        }
      ],
      "name": "OwnableUnauthorizedAccount",
      "type": "error"
    },
    {
      "anonymous": false,
      "inputs": [
        {
          "indexed": true,
          "internalType": "address",
          "name": "previousOwner",
          "type": "address"
        },
        {
          "indexed": true,
          "internalType": "address",
          "name": "newOwner",
          "type": "address"
        }
      ],
      "name": "OwnershipTransferred",
      "type": "event"
    },
    {
      "anonymous": false,
      "inputs": [
        {
          "indexed": true,
          "internalType": "address",
          "name": "user",
          "type": "address"
        },
        {
          "indexed": false,
          "internalType": "uint256",
          "name": "score",
          "type": "uint256"
        }
      ],
      "name": "RiskScoreUpdated",
      "type": "event"
    },
    {
      "inputs": [
        {
          "internalType": "address",
          "name": "user",
          "type": "address"
        }
      ],
      "name": "getRiskScore",
      "outputs": [
        {
          "internalType": "uint256",
          "name": "",
          "type": "uint256"
        }
      ],
      "stateMutability": "view",
      "type": "function"
    },
    {
      "inputs": [],
      "name": "owner",
      "outputs": [
        {
          "internalType": "address",
          "name": "",
          "type": "address"
        }
      ],
      "stateMutability": "view",
      "type": "function"
    },
    {
      "inputs": [],
      "name": "renounceOwnership",
      "outputs": [],
      "stateMutability": "nonpayable",
      "type": "function"
    },
    {
      "inputs": [
        {
          "internalType": "address",
          "name": "",
          "type": "address"
        }
      ],
      "name": "riskScores",
      "outputs": [
        {
          "internalType": "uint256",
          "name": "",
          "type": "uint256"
        }
      ],
      "stateMutability": "view",
      "type": "function"
    },
    {
      "inputs": [
        {
          "internalType": "address",
          "name": "newOwner",
          "type": "address"
        }
      ],
      "name": "transferOwnership",
      "outputs": [],
      "stateMutability": "nonpayable",
      "type": "function"
    },
    {
      "inputs": [
        {
          "internalType": "address",
          "name": "user",
          "type": "address"
        },
        {
          "internalType": "uint256",
          "name": "score",
          "type": "uint256"
        }
      ],
      "name": "updateRiskScore",
      "outputs": [],
      "stateMutability": "nonpayable",
      "type": "function"
    }
  ],
  "bytecode": "0x608060405234801561000f575f80fd5b50335f73ffffffffffffffffffffffffffffffffffffffff168173ffffffffffffffffffffffffffffffffffffffff1603610081575f6040517f1e4fbdf70000000000000000000000000000000000000000000000000000000081526004016100789190610196565b60405180910390fd5b6100908161009660201b60201c565b506101af565b5f805f9054906101000a900473ffffffffffffffffffffffffffffffffffffffff169050815f806101000a81548173ffffffffffffffffffffffffffffffffffffffff021916908373ffffffffffffffffffffffffffffffffffffffff1602179055508173ffffffffffffffffffffffffffffffffffffffff168173ffffffffffffffffffffffffffffffffffffffff167f8be0079c531659141344cd1fd0a4f28419497f9722a3daafe3b4186f6b6457e060405160405180910390a35050565b5f73ffffffffffffffffffffffffffffffffffffffff82169050919050565b5f61018082610157565b9050919050565b61019081610176565b82525050565b5f6020820190506101a95f830184610187565b92915050565b61073a806101bc5f395ff3fe608060405234801561000f575f80fd5b5060043610610060575f3560e01c80635e5b875214610064578063715018a6146100945780638da5cb5b1461009e5780639ff1192d146100bc578063dc08706d146100d8578063f2fde38b14610108575b5f80fd5b61007e60048036038101906100799190610538565b610124565b60405161008b919061057b565b60405180910390f35b61009c610139565b005b6100a661014c565b6040516100b391906105a3565b60405180910390f35b6100d660048036038101906100d191906105e6565b610173565b005b6100f260048036038101906100ed9190610538565b6102c1565b6040516100ff919061057b565b60405180910390f35b610122600480360381019061011d9190610538565b610307565b005b6001602052805f5260405f205f915090505481565b61014161038b565b61014a5f610412565b565b5f805f9054906101000a900473ffffffffffffffffffffffffffffffffffffffff16905090565b61017b61038b565b5f73ffffffffffffffffffffffffffffffffffffffff168273ffffffffffffffffffffffffffffffffffffffff16036101e9576040517f08c379a00000000000000000000000000000000000000000000000000000000081526004016101e09061067e565b60405180910390fd5b606481111561022d576040517f08c379a0000000000000000000000000000000000000000000000000000000008152600401610224906106e6565b60405180910390fd5b8060015f8473ffffffffffffffffffffffffffffffffffffffff1673ffffffffffffffffffffffffffffffffffffffff1681526020019081526020015f20819055508173ffffffffffffffffffffffffffffffffffffffff167f989734652020b9f7aa8a99ab7dc7855f58e3801fa39bd25dc5d83995cbd2464c826040516102b5919061057b565b60405180910390a25050565b5f60015f8373ffffffffffffffffffffffffffffffffffffffff1673ffffffffffffffffffffffffffffffffffffffff1681526020019081526020015f20549050919050565b61030f61038b565b5f73ffffffffffffffffffffffffffffffffffffffff168173ffffffffffffffffffffffffffffffffffffffff160361037f575f6040517f1e4fbdf700000000000000000000000000000000000000000000000000000000815260040161037691906105a3565b60405180910390fd5b61038881610412565b50565b6103936104d3565b73ffffffffffffffffffffffffffffffffffffffff166103b161014c565b73ffffffffffffffffffffffffffffffffffffffff1614610410576103d46104d3565b6040517f118cdaa700000000000000000000000000000000000000000000000000000000815260040161040791906105a3565b60405180910390fd5b565b5f805f9054906101000a900473ffffffffffffffffffffffffffffffffffffffff169050815f806101000a81548173ffffffffffffffffffffffffffffffffffffffff021916908373ffffffffffffffffffffffffffffffffffffffff1602179055508173ffffffffffffffffffffffffffffffffffffffff168173ffffffffffffffffffffffffffffffffffffffff167f8be0079c531659141344cd1fd0a4f28419497f9722a3daafe3b4186f6b6457e060405160405180910390a35050565b5f33905090565b5f80fd5b5f73ffffffffffffffffffffffffffffffffffffffff82169050919050565b5f610507826104de565b9050919050565b610517816104fd565b8114610521575f80fd5b50565b5f813590506105328161050e565b92915050565b5f6020828403121561054d5761054c6104da565b5b5f61055a84828501610524565b91505092915050565b5f819050919050565b61057581610563565b82525050565b5f60208201905061058e5f83018461056c565b92915050565b61059d816104fd565b82525050565b5f6020820190506105b65f830184610594565b92915050565b6105c581610563565b81146105cf575f80fd5b50565b5f813590506105e0816105bc565b92915050565b5f80604083850312156105fc576105fb6104da565b5b5f61060985828601610524565b925050602061061a858286016105d2565b9150509250929050565b5f82825260208201905092915050565b7f496e76616c6964207573657200000000000000000000000000000000000000005f82015250565b5f610668600c83610624565b915061067382610634565b602082019050919050565b5f6020820190508181035f8301526106958161065c565b9050919050565b7f53636f726520746f6f20686967680000000000000000000000000000000000005f82015250565b5f6106d0600e83610624565b91506106db8261069c565b602082019050919050565b5f6020820190508181035f8301526106fd816106c4565b905091905056fea26469706673582212207820542bb0f44ea2059213c2e128d85089443ccd204cd281073d5196c5a2bb7f64736f6c63430008140033",
  "linkReferences": {},
  "deployedLinkReferences": {},
  "immutableReferences": {},
  "inputSourceName": "project/contracts/RiskRegistry.sol",
  "buildInfoId": "solc-0_8_20-af329abce7dc354de9619eea01e72d81ea17b790"
}