{
  "_format": "hh-sol-artifact-1",
  "contractName": "RiskRegistry",
  "sourceName": "contracts/RiskRegistry.sol",
  "abi": [
    {
      "inputs": [],
      "stateMutability": "nonpayable",
      "type": "constructor"
    },
    {
      "inputs": [
        {
          "internalType": "address",
          "name": "owner",
          "type": "address"
        }
      ],
      "name": "OwnableInvalidOwner",
      "type": "error"
    },
    {
      "inputs": [
        {
          "internalType": "address",
          "name": "account",
          "type": "address"
        }
      ],
      "name": "OwnableUnauthorizedAccount",
      "type": "error"
    },
    {
      "anonymous": false,
      "inputs": [
        {
          "indexed": true,
          "internalType": "address",
          "name": "previousOwner",
          "type": "address"
        },
        {
          "indexed": true,
          "internalType": "address",
          "name": "newOwner",
          "type": "address"
        }
      ],
      "name": "OwnershipTransferred",
      "type": "event"
    },
    {
      "anonymous": false,
      "inputs": [
        {
          "indexed": true,
          "internalType": "address",
          "name": "user",
          "type": "address"
        },
        {
          "indexed": false,
          "internalType": "uint256",
          "name": "score",
          "type": "uint256"
        }
      ],
      "name": "RiskScoreUpdated",
      "type": "event"
    },
    {
      "inputs": [
        {
          "internalType": "address",
          "name": "user",
          "type": "address"
        }
      ],
      "name": "getRiskScore",
      "outputs": [
        {
          "internalType": "uint256",
          "name": "",
          "type": "uint256"
        }
      ],
      "stateMutability": "view",
      "type": "function"
    },
    {
      "inputs": [],
      "name": "owner",
      "outputs": [
        {
          "internalType": "address",
          "name": "",
          "type": "address"
        }
      ],
      "stateMutability": "view",
      "type": "function"
    },
    {
      "inputs": [],
      "name": "renounceOwnership",
      "outputs": [],
      "stateMutability": "nonpayable",
      "type": "function"
    },
    {
      "inputs": [
        {
          "internalType": "address",
          "name": "",
          "type": "address"
        }
      ],
      "name": "riskScores",
      "outputs": [
        {
          "internalType": "uint256",
          "name": "",
          "type": "uint256"
        }
      ],
      "stateMutability": "view",
      "type": "function"
    },
    {
      "inputs": [
        {
          "internalType": "address",
          "name": "newOwner",
          "type": "address"
        }
      ],
      "name": "transferOwnership",
      "outputs": [],
      "stateMutability": "nonpayable",
      "type": "function"
    },
    {
      "inputs": [
        {
          "internalType": "address",
          "name": "user",
          "type": "address"
        },
        {
          "internalType": "uint256",
          "name": "score",
          "type": "uint256"
        }
      ],
      "name": "updateRiskScore",
      "outputs": [],
      "stateMutability": "nonpayable",
      "type": "function"
    }
  ],
  "bytecode": "0x608060405234801561001057600080fd5b5033600073ffffffffffffffffffffffffffffffffffffffff168173ffffffffffffffffffffffffffffffffffffffff16036100845760006040517f1e4fbdf700000000000000000000000000000000000000000000000000000000815260040161007b919061019e565b60405180910390fd5b6100938161009960201b60201c565b506101b9565b60008060009054906101000a900473ffffffffffffffffffffffffffffffffffffffff169050816000806101000a81548173ffffffffffffffffffffffffffffffffffffffff021916908373ffffffffffffffffffffffffffffffffffffffff1602179055508173ffffffffffffffffffffffffffffffffffffffff168173ffffffffffffffffffffffffffffffffffffffff167f8be0079c531659141344cd1fd0a4f28419497f9722a3daafe3b4186f6b6457e060405160405180910390a35050565b600073ffffffffffffffffffffffffffffffffffffffff82169050919050565b60006101888261015d565b9050919050565b6101988161017d565b82525050565b60006020820190506101b3600083018461018f565b92915050565b610768806101c86000396000f3fe608060405234801561001057600080fd5b50600436106100625760003560e01c80635e5b875214610067578063715018a6146100975780638da5cb5b146100a15780639ff1192d146100bf578063dc08706d146100db578063f2fde38b1461010b575b600080fd5b610081600480360381019061007c9190610552565b610127565b60405161008e9190610598565b60405180910390f35b61009f61013f565b005b6100a9610153565b6040516100b691906105c2565b60405180910390f35b6100d960048036038101906100d49190610609565b61017c565b005b6100f560048036038101906100f09190610552565b6102cd565b6040516101029190610598565b60405180910390f35b61012560048036038101906101209190610552565b610316565b005b60016020528060005260406000206000915090505481565b61014761039c565b6101516000610423565b565b60008060009054906101000a900473ffffffffffffffffffffffffffffffffffffffff16905090565b61018461039c565b600073ffffffffffffffffffffffffffffffffffffffff168273ffffffffffffffffffffffffffffffffffffffff16036101f3576040517f08c379a00000000000000000000000000000000000000000000000000000000081526004016101ea906106a6565b60405180910390fd5b6064811115610237576040517f08c379a000000000000000000000000000000000000000000000000000000000815260040161022e90610712565b60405180910390fd5b80600160008473ffffffffffffffffffffffffffffffffffffffff1673ffffffffffffffffffffffffffffffffffffffff168152602001908152602001600020819055508173ffffffffffffffffffffffffffffffffffffffff167f989734652020b9f7aa8a99ab7dc7855f58e3801fa39bd25dc5d83995cbd2464c826040516102c19190610598565b60405180910390a25050565b6000600160008373ffffffffffffffffffffffffffffffffffffffff1673ffffffffffffffffffffffffffffffffffffffff168152602001908152602001600020549050919050565b61031e61039c565b600073ffffffffffffffffffffffffffffffffffffffff168173ffffffffffffffffffffffffffffffffffffffff16036103905760006040517f1e4fbdf700000000000000000000000000000000000000000000000000000000815260040161038791906105c2565b60405180910390fd5b61039981610423565b50565b6103a46104e7565b73ffffffffffffffffffffffffffffffffffffffff166103c2610153565b73ffffffffffffffffffffffffffffffffffffffff1614610421576103e56104e7565b6040517f118cdaa700000000000000000000000000000000000000000000000000000000815260040161041891906105c2565b60405180910390fd5b565b60008060009054906101000a900473ffffffffffffffffffffffffffffffffffffffff169050816000806101000a81548173ffffffffffffffffffffffffffffffffffffffff021916908373ffffffffffffffffffffffffffffffffffffffff1602179055508173ffffffffffffffffffffffffffffffffffffffff168173ffffffffffffffffffffffffffffffffffffffff167f8be0079c531659141344cd1fd0a4f28419497f9722a3daafe3b4186f6b6457e060405160405180910390a35050565b600033905090565b600080fd5b600073ffffffffffffffffffffffffffffffffffffffff82169050919050565b600061051f826104f4565b9050919050565b61052f81610514565b811461053a57600080fd5b50565b60008135905061054c81610526565b92915050565b600060208284031215610568576105676104ef565b5b60006105768482850161053d565b91505092915050565b6000819050919050565b6105928161057f565b82525050565b60006020820190506105ad6000830184610589565b92915050565b6105bc81610514565b82525050565b60006020820190506105d760008301846105b3565b92915050565b6105e68161057f565b81146105f157600080fd5b50565b600081359050610603816105dd565b92915050565b600080604083850312156106205761061f6104ef565b5b600061062e8582860161053d565b925050602061063f858286016105f4565b9150509250929050565b600082825260208201905092915050565b7f496e76616c696420757365720000000000000000000000000000000000000000600082015250565b6000610690600c83610649565b915061069b8261065a565b602082019050919050565b600060208201905081810360008301526106bf81610683565b9050919050565b7f53636f726520746f6f2068696768000000000000000000000000000000000000600082015250565b60006106fc600e83610649565b9150610707826106c6565b602082019050919050565b6000602082019050818103600083015261072b816106ef565b905091905056fea2646970667358221220c307f6f09e30ce457e1ee679b2022423c2c56270cb19930c5fe21fd948442b5a64736f6c63430008140033",
  "linkReferences": {},
  "deployedLinkReferences": {}
}